:020000040800F2
:1000000000000820D9B20008D1B10008D3B100081F
:10001000D5B10008D7B10008D9B100080000000030
:10002000000000000000000000000000DBB100083C
:10003000DDB1000800000000DFB10008E1B10008F8
:1000400029B3000829B3000829B3000829B3000820
:1000500029B3000829B3000829B3000829B3000810
:1000600029B3000829B3000829B3000829B3000800
:1000700029B3000829B3000829B3000829B30008F0
:1000800029B3000829B3000829B3000829B30008E0
:1000900029B3000829B3000829B3000829B30008D0
:1000A00029B3000829B3000829B3000829B30008C0
:1000B000E5B1000829B3000829B3000829B30008F6
:1000C00029B3000829B3000829B3000829B30008A0
:1000D00029B3000829B3000829B3000829B3000890
:1000E00029B3000829B3000829B3000829B3000880
:1000F00029B3000829B3000829B3000829B3000870
:1001000029B3000829B3000829B3000829B300085F
:1001100029B3000829B3000829B3000829B300084F
:1001200029B30008F1B1000829B3000829B3000879
:1001300029B3000829B3000829B3000829B300082F
:1001400029B3000829B3000829B3000829B300081F
:1001500029B3000829B3000829B3000829B300080F
:1001600029B3000829B3000829B3000829B30008FF
:1001700029B3000829B30008FDB100080000000001
:1001800029B3000829B3000829B3000829B30008DF
:1001900029B3000829B3000829B3000829B30008CF
:1001A00029B3000829B3000829B3000829B30008BF
:1001B00029B3000829B3000829B3000829B30008AF
:1001C00029B3000829B300080000000029B3000883
:1001D00029B3000829B3000829B3000829B300088F
:1001E00029B3000829B3000829B3000829B300087F
:0801F00029B3000829B300083F
:1002000010B5054C237833B9044B13B10448AFF350
:1002100000800123237010BD840000200000000036
:1002200070C6000808B5034B1BB103490348AFF380
:10023000008008BD000000008800002070C6000893
:1002400010F8012B11F8013B012A28BF9A42F7D080
:10025000D01A7047034613F8012B002AFBD1181A55
:10026000013870470000000000000000000000009E
:1002700001F0FF01102A2BDB10F0070F08D010F857
:10028000013B013A8B422DD010F0070F42B3F6D15B
:10029000F0B441EA012141EA014122F007047FF074
:1002A00000070023F0E80256083C85EA010586EACB
:1002B000010685FA47F5A3FA87F586FA47F6A5FA07
:1002C00087F68EB9EED1F0BC01F0FF0102F0070213
:1002D00032B110F8013B013A83EA010313B1F8D1BE
:1002E0000020704701387047002D06BF354603389F
:1002F000073815F0010F07D1013015F4807F02BFD8
:10030000013015F4C03F0130F0BC0138704700BF28
:1003100053B94AB9002908BF00281CBF4FF0FF316C
:100320004FF0FF3000F07AB9ADF1080C6DE904CE62
:1003300000F006F8DDF804E0DDE9022304B07047C0
:100340002DE9F0478C460D460446089E002B51D1FE
:100350008A4217466DD9B2FA82FEBEF1000F0BD069
:10036000CEF1200C01FA0EF520FA0CFC02FA0EF781
:100370004CEA050C00FA0EF44FEA174A250CBCFBB8
:10038000FAF81FFA87F90AFB18CC45EA0C4508FB76
:1003900009F3AB420AD9ED1908F1FF3280F023814D
:1003A000AB4240F22081A8F102083D44ED1AA4B20C
:1003B000B5FBFAF00AFB105544EA054400FB09F9C5
:1003C000A14509D9E41900F1FF3380F00A81A14564
:1003D00040F2078102383C44A4EB090440EA08409B
:1003E0000021002E61D024FA0EF4002334607360E3
:1003F000BDE8F0878B4207D9002E54D0002186E853
:1004000021000846BDE8F087B3FA83F1002940F0E7
:100410008E80AB4202D3824200F2FA80841A65EBEE
:1004200003050120AC46002E3FD086E81010BDE841
:10043000F08712B90127B7FBF2F7B7FA87FEBEF1D2
:10044000000F34D1EB1B3A0C1FFA87FC0121B3FBE0
:10045000F2F8250C02FB183345EA03450CFB08F3C0
:10046000AB4207D9ED1908F1FF3002D2AB4200F2DE
:10047000D1808046ED1AA3B2B5FBF2F002FB105515
:1004800043EA05440CFB00FCA44507D9E41900F13C
:10049000FF3302D2A44500F2B8801846A4EB0C0446
:1004A00040EA08409DE731463046BDE8F087CEF18E
:1004B000200405FA0EF307FA0EF720FA04F83A0CB6
:1004C00025FA04F448EA0308B4FBF2F14FEA1845B0
:1004D00002FB11441FFA87FC45EA044501FB0CF3BB
:1004E000AB4200FA0EF409D9ED1901F1FF3080F0AA
:1004F0008A80AB4240F2878002393D44EB1A1FFAF2
:1005000088F5B3FBF2F002FB103345EA034500FB2C
:100510000CF3AB4207D9ED1900F1FF386FD2AB42B3
:100520006DD902383D44EB1A40EA01418FE7C1F131
:10053000200722FA07F88B4005FA01F448EA030382
:1005400020FA07FE4FEA134CFD404EEA040EB5FBBD
:10055000FCF94FEA1E440CFB19551FFA83F844EAD4
:10056000054509FB08F4AC4202FA01F200FA01FA6F
:1005700008D9ED1809F1FF3043D2AC4241D9A9F1B5
:1005800002091D442D1B1FFA8EFEB5FBFCF00CFB6F
:1005900010554EEA054400FB08F8A04507D9E418B9
:1005A00000F1FF3529D2A04527D902381C4440EA82
:1005B0000940A4EB0804A0FB02894C45C6464D4601
:1005C00015D312D056B1BAEB0E0364EB050404FA4E
:1005D00007F7CB401F43CC40376074600021BDE873
:1005E000F0871846F8E69046E0E6C245EAD2B8EB56
:1005F000020E69EB03050138E4E72846D7E74046D9
:1006000091E78146BEE7014678E702383C4445E77A
:10061000084608E7A8F102083D442BE7704700BFF1
:1006200038B50E4B05460E4A18784FF47A73B3FB73
:10063000F0F31068B0FBF3F000F09EF8044658B9F0
:100640000F2D09D8024629464FF0FF3000F04EF832
:10065000044B20461D6038BD012038BD000000203D
:100660001C0000200400002008B5032000F02CF836
:100670000020FFF7D5FF0AF019FC002008BD00009C
:10068000034A044B11681B780B441360704700BF8A
:100690003C02002000000020014B1868704700BF9A
:1006A0003C02002038B50446FFF7F6FF0546631C00
:1006B0001EBF044B1B78E418FFF7EEFF401B84427B
:1006C000FAD838BD00000020074A0002D36800F4C1
:1006D000E06023F4E0631B041B0C43F0BF6343F4AE
:1006E00000330343D360704700ED00E0194B30B591
:1006F000DC68C4F30224C4F10703251D042B28BFC2
:100700000423062D4FF001058CBF033C002405FA9D
:1007100003F3002803F1FF3301EA030101FA04F1B6
:1007200005FA04F404F1FF3402EA040242EA010289
:100730004FEA021207DB00F16040D2B200F56140DF
:1007400080F8002330BD00F00F00D2B2024B1A54E3
:1007500030BD00BF00ED00E014ED00E0002808DB34
:100760004209012300F01F0003FA00F0014B43F897
:100770002200704700E100E00138B0F1807F0AD22A
:10078000064BF021064A5860002082F82310072209
:1007900098601A6070470120704700BF10E000E0C9
:1007A00000ED00E010B5846BA36BA06CC3B10368CF
:1007B0001968A26B12F001020BD1090309D5DB689D
:1007C000E16B03EBC10100F00BFDA36B013BA363E5
:1007D0000CE01A68120309D41B690122E16BF0E7EF
:1007E00003681A68110311D5626CDA60A26B236C7E
:1007F0009A420AD12368DA6842F00102DA601B6883
:100800009B0702D5012384F8353010BD1A68120306
:10081000ECD4E16B626C02EB81021A61236CD6E7C7
:1008200038B5044600283DD090F835300BB90AF0B1
:1008300055FB22680223E56884F835301A4B1168AD
:100840000B406168136010296369106843EA010373
:1008500043EA0503256943EA0503A56843EA05035E
:10086000A56943EA0503256A43EA0503656A43EA85
:100870000503A56A43EA0503E56A43EA0503256B18
:1008800043EA050343EA0003136001D1E36993617E
:10089000D368002043F01E03D3600123E06484F892
:1008A000353038BD012038BD07F0E0FFF7B504460C
:1008B00090F83400164601284FF002002DD025682C
:1008C0004FF0010E84F83500B3F5803F286884F8B6
:1008D00034E040F48040DFF88CC02860286820F0C5
:1008E00002002860286841EA0001A06C29601C49C8
:1008F000C0F83CC0C1644FF000010165A1632164F0
:100900000DD205F1280100F075F922680020136866
:1009100043F00103136084F8340003B0F0BDC0F865
:1009200044C0C4F838E06264E363E36BB3F5803F2E
:100930000FD2A36B05F12801023BA363A36B2364D1
:10094000E36BE26B06EB83030092324600F05CFA45
:10095000DBE7E36B5B08E363A36B5B00A363E4E7A4
:100960000B0A0008A507000890F834200346012A66
:100970002CD00121164A80F8341090F835101268F6
:10098000022904D00020002283F8342070474FF45D
:10099000FA51B2FBF1F14FF47A724A43052180F823
:1009A00035100168086820F00100086012F1FF327C
:1009B00008D2DA6C032042F02002DA64012283F8C4
:1009C0003520E0E70868C007F0D4DBE70220704775
:1009D0001C00002090F83430012B13D0012380F844
:1009E000343090F83530052B07D10223026880F8A7
:1009F0003530136843F001031360002380F834306E
:100A000018467047022070477047806B08B5836CAA
:100A10005B6D022B06D0012380F83530C36C43F0A8
:100A20004003C364FFF7F0FF08BD70477047000044
:100A300038B5036804461D6969070CD504225A615C
:100A4000C36C43F00203C36480F835201C4B806CF8
:100A5000036500F00CF9AA070ED523680222A06CEA
:100A60005A61E36C43F00103E364042384F83530F6
:100A7000134B036500F0FBF8EB0605D52368102245
:100A800020465A61FFF7D1FF280705D523680822C1
:100A900020465A61FFF7CAFFE90710D523681A6894
:100AA000920703D5DA6822F01E02DA60DA6820467F
:100AB00022F00102DA6001225A6109F09DFD38BD81
:100AC0000B0A000890F835007047000003681821F1
:100AD000DAB223F47F73103A23F00303B2FBF1F28E
:100AE0000449032A895C88BF0433C1658365806D2E
:100AF000704700BF88C6000870B50446FFF7CCFDFC
:100B00000546002C71D00023226884F8343002237B
:100B100084F83530136823F00103136021680B68F3
:100B2000D8073CD40B68324D62681D40A368A069A9
:100B30001343E26813432269134362691343E26972
:100B400003431343226A1343626A042A43EA0503F8
:100B500001BF266BE56A35432B43042A0B604B69C2
:100B600023F0070343EA02030BD1A26AE56A1343A9
:100B70003DB1F8B9012A2DD001D3022A01D1EA01F1
:100B80002BD44B612046FFF7A1FFE26D3F2393403A
:100B9000836000200123606584F8353070BDFFF765
:100BA0007BFD401B0528B9D920230320636584F809
:100BB000350070BDB0F5005F13D1032AE1D801A064
:100BC00050F822F0DB0B00087F0B0008DB0B00085D
:100BD000D50B0008B5F1C07FD3D140230120636558
:100BE000E5E7022AF9D9032AC8E7012070BD00BF52
:100BF0003F8010E070B590F83440012C35D00124CE
:100C0000866D002580F8344090F83540012C4FF077
:100C1000020428D180F8354004684565256825F42C
:100C20008025256063608368402B19D1A260E16054
:100C3000C26D3F239340B360236843F016032360E3
:100C4000636943F080036361036C1BB1236843F065
:100C5000080323602368002043F00103236070BD74
:100C6000A160E260E4E780F83450022070BD90F8A3
:100C70003530022B03D08023436501207047026882
:100C8000052380F835300020136823F0010313603A
:100C9000704700000023F7B501930822594B044622
:100CA000856D1F68C36D2E689A4016420CD001688E
:100CB0000868400708D5086820F004000860AA60AA
:100CC000626D42F00102626501229A40164208D02C
:100CD00021684969090604D5AA60626D42F00202E2
:100CE000626504229A40164208D021680968880784
:100CF00004D5AA60626D42F00402626510229A4037
:100D0000164210D02368196809070CD5AA601A6822
:100D1000500335D51B68190301D4236C00E0A36C84
:100D20000BB120469847E16D20228A40164238D008
:100D300023681868C60634D5AA6094F83520052AB9
:100D40001A6825D122F016021A605A6922F0800230
:100D50005A61226C0AB9A26C1AB11A6822F0080210
:100D60001A603F238B40AB60002384F834300123AA
:100D700084F83530236D0BB12046984703B0F0BDA1
:100D80001A68D205C9D41A6822F008021A60C4E7AA
:100D9000500328D51B68190332D4636C0BB120466D
:100DA0009847636D002BE9D0636DDA0719D50523E9
:100DB000226884F83530136823F0010313604FF480
:100DC0001653B7FBF3F7019B01339F42019302D304
:100DD0001368DB07F7D4002384F83430012384F848
:100DE0003530E36CC7E71A6812F4807208D11968CD
:100DF00021F010011960012384F8342084F8353083
:100E0000E36BCBE71C00002070B58668802E04D110
:100E10004FF480734365012070BD90F83440012C7D
:100E200000F0D4810124002580F8344090F835404A
:100E3000012C4FF0020440F0C78180F83540402E6D
:100E400004684565256845F4802525602361049B79
:100E500063603FD1A260E160B04B9C4242D918333D
:100E60009C423AD0AE4A944239D01832944214BFD0
:100E70004FF000624FF40012AA499C42CA6040F051
:100E8000B38010229C42CA6040F0E6800822A54947
:100E90009C42CA6040F0188104229C42CA6040F023
:100EA0005F8101239F4AD360236843F016032360C8
:100EB000636943F080036361036C0BB9836C1BB1FE
:100EC000236843F0080323602368002043F00103F4
:100ED000236070BDA160E260BEE72022CCE74FF442
:100EE0000062C9E7904B9C422AD903F556739C4295
:100EF00021D08E4A944220D01832944214BF4FF031
:100F000000624FF4001287499C428A607AD1102215
:100F10009C428A6040F0AE80082282499C428A60EE
:100F200040F0E08004229C428A6040F02681012348
:100F30007C4A9360B8E72022E5E74FF40062E2E7DD
:100F40007B4B9C4228D918339C4220D0794A94424A
:100F50001FD01832944214BF4FF000624FF40012B9
:100F600075499C42CA605BD110229C42CA6040F025
:100F70008F80082270499C42CA6040F0C1800422E0
:100F80009C42CA6040F0068101236B4A8BE7202215
:100F9000E6E74FF40062E3E7684B9C421FD0684AE3
:100FA00094421ED01832944214BF4FF000624FF4A6
:100FB000001261499C428A6040D110229C428A60A2
:100FC00074D108225C499C428A6040F0BB800422B4
:100FD0009C428A6040F0EB800123574AA9E7202217
:100FE000E7E74FF40062E4E74D4A944207D0183235
:100FF000944214BF4FF080624FF4801242E74FF4E6
:1010000080623FE7494A944207D01832944214BFA5
:101010004FF080624FF480127AE74FF4806277E7F6
:10102000444A944207D01832944214BF4FF0806271
:101030004FF4801299E74FF4806296E7404A944259
:1010400007D01832944214BF4FF080624FF48012E0
:10105000B4E74FF48062B1E7314A944207D01832C6
:10106000944214BF4FF000724FF400220FE74FF488
:1010700000720CE72D4A944207D01832944214BFF4
:101080004FF000724FF4002247E74FF4007244E73C
:10109000284A944207D01832944214BF4FF000728D
:1010A0004FF4002266E74FF4007263E7244A94424B
:1010B00007D01832944214BF4FF000724FF4002250
:1010C00080E74FF400727DE7154A944207D018324A
:1010D000944214BF4FF080724FF48022DDE64FF44B
:1010E0008072DAE6114A944207D01832944214BF53
:1010F0004FF080724FF4802215E74FF4807212E7B0
:101100000C4A944207D01832944214BF4FF08072B8
:101110004FF4802234E74FF4807231E75864024084
:101120008864024000640240B860024028640240C3
:101130005860024088600240006002401060024037
:1011400028600240224A944207D01832944214BFC9
:101150004FF080724FF480223AE74FF4807237E705
:101160001C4B9C4207D018339C4214BF4FF48003A1
:101170004FF4803396E6402394E6174B9C4207D009
:1011800018339C4214BF4FF480034FF48033CFE6F2
:101190004023CDE6114B9C4207D018339C4214BF2C
:1011A0004FF480034FF48033EFE64023EDE6084B25
:1011B0009C4207D018339C4214BF4FF480034FF475
:1011C00080330AE7402308E780F83450022070BDDE
:1011D000286002408864024028640240886002401F
:1011E000036812B9D960002070471961FBE700233A
:1011F00037B541F2180401930368054601201A59D6
:1012000042F480121A511B590193FFF74BFA2B68D5
:10121000019A1A5103B030BD70B5044629B14FF49C
:101220000063C3604FF480438360E3692268002B4E
:10123000E068A368156808BF4FF4806143EA0003C3
:101240002E4818BF0021284043F4007303430120B7
:101250000B4313601568FFF725FA2368402201202D
:101260001D605A605D68FFF71DFA236801205D600C
:1012700000259D60DD609A6922F0BE021204120C06
:1012800042F080029A619E69FFF70CFA2368012000
:101290009E61DD61DD69FFF705FA22680120184BC8
:1012A000D56141F2180551590B4043F0087343F0E2
:1012B000040353515659FFF7F5F923680120114AE9
:1012C0005E5103F580531A601D68FFF7EBF9226841
:1012D00002F580531D60A369012B07D141F21C0167
:1012E000535843F4803343F0400353506369064A34
:1012F000998811601A68054B1A6070BD0F8120FF34
:10130000233FDEF88020C10240800240448002403A
:10131000F0B590F84540012C4FF0020433D0012580
:1013200080F844404FF4801701F1200480F84550C4
:1013300040F2F45E002503F1FF3CC1629D420BD1F7
:10134000026841F21003D150012380F84430002399
:1013500080F845301846F0BD0EFB052644F8207C89
:1013600044F8186CC6692EB954F8206C46F440064F
:1013700044F8206C65452CBF0E46264601352034C6
:1013800044F8346CDAE72046F0BD2DE9F04190F8DE
:101390004540012C4FF0020430D0012580F8444034
:1013A0004FF0004601F1200480F8455044F2F45714
:1013B000002540F2F45E03F1FF3C81629D420CD1B6
:1013C000026841F20C03D150012380F8443000231D
:1013D00080F845301846BDE8F0810EFB052844F83A
:1013E000206C44F8188C65452CBF8846A04644F80C
:1013F0001C7C013544F8148C2034DFE72046BDE81E
:10140000F081000090F84530012B4FF00203F0B559
:1014100066D0012280F8443080F8452029B980F850
:10142000442080F845101046F0BDC36A1C68002CAB
:1014300006DA122380F84430002380F84530F2E7C2
:1014400040F2F454A1422CD9B1FBF4F204FB121483
:101450002CB30132234C01F2F45140F2F456571EE2
:1014600004FB02110024C1F30C011D6825F0405556
:101470001D601CB91D6845F080551D60A7425E6067
:1014800004D11D68596045F000551D601D68013488
:1014900045F0004594421D60DB68E6D10DE0012A6D
:1014A000D8D11A68C1F30C0142F0405259601A6059
:1014B0001A6842F000421A60DB68C36241F214020B
:1014C00003689958490705D504219950002141F234
:1014D00004029950012380F84430002380F84530FD
:1014E0001846F0BD0CFAFFFF90F84530012B4FF085
:1014F000020330B523D080F844300124836A80F899
:1015000045401A68002A27DB1A68D96812F48072ED
:1015100017D0826B43632244A242826308BF0363F5
:101520001B68C3F30D43043BC363036B9B68816279
:101530000364012380F84430002380F845301846C6
:1015400030BD1D688162AD0555BF836B03630133F8
:1015500042634CBF846383630123002280F84430DC
:1015600080F84520EBE7F8B590F84430054616467C
:10157000822B30D002688223890180F844301369BD
:1015800001F4F86403F01C012143048AE402A4B2CC
:101590000C4344F001041461FFF77EF8074614F091
:1015A000010007D12B685B699BB23360012385F88A
:1015B0004430F8BDFFF770F8C01BB0F5803F07D38B
:1015C0000123032085F84430002385F84530F8BD19
:1015D0002B681C69E3E70220F8BD90F84430422BE9
:1015E00070B505462ED042238C0192B280F844306B
:1015F00004F4F864036844F00304186900F01C0064
:1016000020432C8A5A61E402A4B204431C61FFF710
:1016100043F8064614F0010003D1012385F8443055
:1016200070BDFFF739F8801BB0F5803F07D3012369
:10163000032085F84430002385F8453070BD2B68C1
:101640001C69E7E7022070BD0023F7B5044600934C
:10165000002800F0DC8090F8443003F0FF021BB952
:1016600080F8452008F038FD6A4B5A6C42F48042FD
:101670005A645B6C03F480430193019B664B5A6888
:1016800022F400025A605A68216A0A435A602368A9
:1016900003F580531A6842F001021A60FEF7FCFF5E
:1016A0000546236803F580521268D0071DD41D69D2
:1016B00000F02AFD594B5A4A25F01C050344934279
:1016C00022D845F0080523684FF400420021204647
:1016D0001D61FFF782FF054668B301250121204601
:1016E000FFF79AFD84F844500BE0FEF7D5FF401B4E
:1016F000B0F5FA7FD5D90325002384F8445084F847
:101700004530284603B0F0BD464B474A0344934258
:1017100002D845F00C05D6E7444B454A03449342B2
:10172000D1D9444B444A0344934294BF45F0040545
:1017300045F01005C7E7FF20FEF7B4FF6368002BF4
:1017400053D0FEF7A9FF41F2883706466A460121C9
:101750002046FFF708FFFEF79FFF801BB8420BD91A
:1017600001212046FFF758FD0123032584F844306A
:10177000002384F84530C4E7009B5907E6D54FF4B1
:10178000805200212046FFF728FF0028A5D1FEF750
:1017900083FF41F2883706466A4601212046FFF75B
:1017A000E2FEFEF779FF801BB842D9D8009B9A066B
:1017B000F2D56A461F212046FFF7D5FE00288CD1BE
:1017C000009B13F0100218BF4FF400625B074CBF80
:1017D00000234FF48043E260A36000212046FFF71E
:1017E0001BFD012384F844308BE7A3682946E26897
:1017F00020465B0843EAD20292B2FFF7EEFE0028D1
:101800007FF46BAF40F6FF70FEF74CFFE5E7012574
:1018100077E700BF003802400038014000D3CEFE19
:10182000BFE1E40040F1E9FD3F787D0100796CFC07
:10183000FF596202001F0AFA7FF0FA0290F8453061
:10184000012B73B505464FF0020033D000242B68FE
:1018500085F84400012601941A68304685F84560F1
:1018600042F008021A601B680193FEF71BFF019A01
:1018700030462B681A6000941A6842F004021A601D
:101880001B680093FEF70EFF2B682846009A1A602B
:10189000FFF7ADFC2A6841F218032046D15841F405
:1018A0000051D150D15841F00201D15085F8446027
:1018B00085F8454002B070BD2DE9F04F0B6885B04A
:1018C000DFF8C081019300236C4ADFF8BC914FF030
:1018D000010E019C0EFA03FE0EEA0406B64540F026
:1018E000B3804C6824F01007022F16D14FEAD30AB8
:1018F00003F0070B4FF00F0C00EB8A0A4FEA8B0B3B
:10190000DAF820500CFA0BFC25EA0C0C0D6905FAEC
:101910000BF545EA0C05CAF820504FEA430A0325A7
:10192000D0F800B004F0030C05FA0AF5013F0CFAF8
:101930000AFCED43012F0BEA050B4CEA0B0CC0F837
:1019400000C011D8876807EA050BCF6807FA0AFCC0
:101950004CEA0B078760476827EA0E0EC4F30017AE
:101960009F4047EA0E074760C7683D408F6807FA07
:101970000AF73D43C560E50066D5D8F8445023F02A
:10198000030703F0030E4FF00F0C45F4804507F1F9
:1019900080474FEA8E0EC8F8445007F59C37D8F8B8
:1019A000445005F480450395039D0CFA0EF5D7F8D5
:1019B00008A02AEA050C324DA8424CD005F58065F6
:1019C000A8424AD005F58065A84248D005F5806553
:1019D000A84246D005F58065A84244D0484544D089
:1019E00005F50065A84242D005F58065A84240D0C3
:1019F00005F58065A8423ED005F58065A84214BF74
:101A00000A25092505FA0EF514F4803F45EA0C0570
:101A1000BD606FEA060715680CBF3D40354314F4FE
:101A2000003F156055680CBF3D40354314F4801FDE
:101A3000556095680CBF3D403543A4029560D5685C
:101A400054BF3D403543D5600133102B7FF43FAF89
:101A500005B0BDE8F08F0025D4E70125D2E70225C7
:101A6000D0E70325CEE70425CCE70525CAE7062500
:101A7000C8E70725C6E70825C4E700BF003C0140CA
:101A8000000002400038024000140240036919427D
:101A900014BF0120002070470AB18161704709041A
:101AA000FBE7436931EA030308BF0904816170471A
:101AB00010B5044600284AD090F8413003F0FF02E8
:101AC0001BB980F8402009F0C3FA2423E16884F8A8
:101AD0004130012923681A6822F001021A60626805
:101AE00022F070621A619A6822F400429A60A26839
:101AF00024D142F400429A605A680020616942F0A1
:101B0000007242F400425A60DA6822F40042DA605D
:101B100022690A43A16942EA0122216ADA60E26984
:101B20000A431A601A6842F001021A6020236064B6
:101B300084F84130206384F8420010BD42F404422E
:101B400002299A60D8D14FF400625A60D4E701208C
:101B500010BD90F84120D2B2202A10B51DD190F8C6
:101B60004030012B19D0242380F8413003681C68D1
:101B700024F001041C601C6824F480541C601C6860
:101B800021431960196841F001011960002380F8B0
:101B9000412080F84030184610BD022010BD10B51D
:101BA00090F84140E4B2202C1CD190F84030012B39
:101BB00018D0242380F8413003681A6822F001020B
:101BC0001A601A6822F4706242EA012119601A68E8
:101BD00042F001021A60002380F8414080F8403052
:101BE000184610BD022010BD194B37B51A6C194CA0
:101BF00042F080521A641B6C03F080530193019BE6
:101C0000236843F480332360FEF746FD054663688E
:101C1000DA030CD5236843F400332360FEF73CFD60
:101C20000C4C054663689B030AD5002006E0FEF7CE
:101C300033FD401BB0F57A7FE9D9032003B030BDF6
:101C4000FEF72AFD401BB0F57A7FEBD9F5E700BF20
:101C500000380240007000402DE9F341044618B9F5
:101C6000012002B0BDE8F0810368D80710D42368D2
:101C700099075ED42368190700F1A38023685A07E7
:101C800000F1C480A269002A40F02E810020E8E71C
:101C9000934B9A6802F00C02042A07D09A6802F06B
:101CA0000C02082A0AD15B685A0207D58C4B1B68C4
:101CB0009B03DCD56368002BD9D1D1E76368884DDD
:101CC000B3F5803F11D12B6843F480332B60FEF7CE
:101CD000E3FC834D06462B689F03C8D4FEF7DCFC6B
:101CE000801B6428F7D90320BBE79BB92B6823F43A
:101CF00080332B602B6823F480232B60FEF7CCFC11
:101D000006462B689803B2D5FEF7C6FC801B6428F4
:101D1000F7D9E8E7B3F5A02F2B6803D143F480236C
:101D20002B60D0E723F480332B602B6823F48023CF
:101D3000CCE76B4B9A6812F00C0F07D09A6802F050
:101D40000C02082A11D15B6859020ED4644B1A6840
:101D5000920702D5E268012A82D11A68216922F02D
:101D6000F80242EAC1021A6084E7E3685C4DBBB145
:101D70002B6843F001032B60FEF78EFC06462B68B0
:101D80009F0707D52B68226923F0F80343EAC203B3
:101D90002B606FE7FEF780FC801B0228EFD9A2E7DB
:101DA0002B6823F001032B60FEF776FC06462B68B8
:101DB00098077FF55FAFFEF76FFC801B0228F6D90E
:101DC00091E76369464D83B16B6F43F001036B6725
:101DD000FEF762FC06466B6F9B073FF54FAFFEF7C1
:101DE0005BFC801B0228F6D97DE76B6F23F00103B3
:101DF0006B67FEF751FC06466B6F9F077FF53EAFA2
:101E0000FEF74AFC801B0228F6D96CE7344B1A6CAB
:101E1000D00027D41A6C012642F080521A641B6C41
:101E200003F080530193019B2E4D2B68D9051BD5E0
:101E3000A3682B4D012B27D12B6F43F001032B6798
:101E400041F28835FEF728FC254F80463B6F9B0703
:101E50003FD5002E3FF416AF214A136C23F0805378
:101E600013640FE70026DFE72B6843F480732B60D1
:101E7000FEF712FC07462B68DA05D9D4FEF70CFCF6
:101E8000C01B6428F7D92EE7ABB92B6F41F2883815
:101E900023F001032B672B6F23F004032B67FEF75E
:101EA000FBFB07462B6F9807D3D5FEF7F5FBC01B4E
:101EB0004045F7D917E7052B2B6F03D143F00403F7
:101EC0002B67B9E723F001032B672B6F23F0040383
:101ED000B5E7FEF7E1FBA0EB0800A842B6D902E7A0
:101EE0000038024000700040244DAB6803F00C0342
:101EF000082B3FF4B5AE2B68022A23F080732B60C9
:101F00002FD1FEF7C9FB06462B68990123D4226A1C
:101F1000E3691343626A43EA8213E26A43EA0263B3
:101F2000226B43EA0273A26A144C5208013A43EA54
:101F300002436B602B6843F080732B60FEF7ACFBB1
:101F4000054623689A013FF5A1AEFEF7A5FB401BAD
:101F50000228F6D9C7E6FEF79FFB801B0228D3D9DB
:101F6000C1E6FEF799FB04462B689B017FF58EAE18
:101F7000FEF792FB001B0228F6D9B4E600380240B7
:101F8000104908B58B6803F00C03082B18D14A6878
:101F90004B68496802F03F0213F480030A48C1F31A
:101FA000881118BF0023A1FB0001FEF7B1F9054B12
:101FB0005B68C3F3014301335B00B0FBF3F008BD82
:101FC000014808BD003802400024F4002DE9F0412A
:101FD0000D46044610B90120BDE8F081464A136859
:101FE00003F00F038B4228D321688F0730D4C80732
:101FF00043D4414A136803F00F039D4267D322681C
:10200000510770D4130707D53C4A2169936823F41C
:10201000604343EAC1039360FFF7B2FF374B384A8E
:102020009B68C3F30313D35CD840364B1860002081
:10203000FEF7F6FA0020BDE8F081136823F00F03E5
:102040000B431360136803F00F039942C3D1CBE72E
:1020500011F0040F294B03D09A6842F4E0529A60C1
:102060000E0703D59A6842F460429A609A68A068A5
:1020700022F0F00202439A60B9E761681F4B012920
:102080001A681CD112F4003FA5D09A6841F2883832
:102090001A4E22F003020A439A60FEF7FDFA074641
:1020A000B368626803F00C03B3EB820FA1D0FEF7B4
:1020B000F3FAC01B4045F3D90320BDE8F0810229A3
:1020C00002D112F0007FDFE712F0020FDCE71368A5
:1020D00023F00F032B431360136803F00F039D429B
:1020E0007FF479AF8BE70549E0688B6823F4E05310
:1020F00003438B6086E700BF003C0240003802408B
:102100000DE500081C000020014B1868704700BF57
:102110001C000020044B054A9B68C3F38223D35C58
:10212000034A1068D8407047003802401DE5000897
:102130001C000020044B054A9B68C3F34233D35C68
:10214000034A1068D8407047003802401DE5000877
:102150001C0000202DE9F7430268044612F0010636
:102160000BD0BA4B996821F400019960466B9968CD
:102170003143B6FA86F67609996012F4002512D03A
:10218000B249E56BD1F88C30B5F5801F23F44013CC
:1021900008BF012643EA050316BFB5FA85F50025F9
:1021A0006D09C1F88C30D70210D5A848216CD0F841
:1021B0008C30B1F5800F23F4400343EA0103C0F8EB
:1021C0008C3000F0A981002908BF012512F0807F22
:1021D00018BF0126900631D59C4B9D4F1A6C42F0DA
:1021E00080521A641B6C03F080530193019B3B687F
:1021F00043F480733B60FEF74FFA80463B68D90595
:1022000040F18C81914F3B6F13F4407340F091810A
:10221000236B03F44072B2F5407F8C4A40F0AF81EB
:10222000916823F0704021F4F81120F440700143CC
:102230009160C3F30B03116F0B4313672368DF0631
:102240000CD5824AD2F88C1021F08071C2F88C1023
:10225000D2F88C10A06B0143C2F88C10580408D53A
:102260007A49606ED1F8902022F440320243C1F8DE
:102270009020190408D57549A06ED1F8902022F459
:1022800040220243C1F89020DA0308D56F49E06E7E
:10229000D1F8902022F440120243C1F890209F030D
:1022A00008D56A49206FD1F8902022F440020243F9
:1022B000C1F89020580608D56449606CD1F8902088
:1022C00022F003020243C1F89020190608D55F49A5
:1022D000A06CD1F8902022F00C020243C1F89020AB
:1022E000DA0508D55949E06CD1F8902022F0300287
:1022F0000243C1F890209F0508D55449206DD1F8BC
:10230000902022F0C0020243C1F89020580508D561
:102310004E49606DD1F8902022F440720243C1F81A
:102320009020190508D54949A06DD1F8902022F4D4
:1023300040620243C1F89020DA0408D54349E06DB9
:10234000D1F8902022F440520243C1F890209F041B
:1023500008D53E49206ED1F8902022F44042024335
:10236000C1F89020580208D53849A06FD1F89020C4
:1023700022F080620243C1F8902099020CD53348C4
:10238000E16FD0F89020B1F1006F22F0006208BF39
:1023900001250A43C0F8902013F0080F18BF01254B
:1023A0005A0308D52949606FD1F8902022F0407275
:1023B0000243C1F890201F0209D52449D4F88000B7
:1023C000D1F8902022F080520243C1F890205801A9
:1023D00009D51E49D4F88400D1F8902022F000528B
:1023E0000243C1F89020190109D51849D4F8880092
:1023F000D1F88C2022F000720243C1F88C20DA0060
:1024000009D51249D4F88C00D1F88C2022F08062D2
:102410000243C1F88C20012E00F0B580B3F1007F9B
:1024200000F0B180012D75D1084D2B6823F0805349
:102430002B60FEF731F906462B689F0000F12781DB
:1024400021680E0306D5E36B43B103E00038024078
:1024500000700040CD021DD5236CDBB9934AD2F841
:102460008830D2F8880003F4403300F0E0400343A2
:10247000606943EA8013A06943EA0063C2F88830C8
:10248000D2F88C30A06A23F4F853013843EA0023D1
:10249000C2F88C30880215D5E36FB3F1006F11D10B
:1024A000824AD2F88830D2F8880003F0706300F0D6
:1024B000E0400343606943EA8013206A43EA004333
:1024C000C2F888300A0719D57849D1F88820D1F8A0
:1024D000883002F0706203F440331343626943EAC8
:1024E0008213E26943EA0273C1F88830D1F88C3074
:1024F000E26A23F440331343C1F88C306B4C2368F9
:1025000043F080532360FEF7C7F8054623689B001D
:1025100040F1C480002009E0012657E6FEF7BCF830
:10252000A0EB080064287FF669AE032003B0BDE885
:10253000F083226B02F4407293423FF469AE3B6F2A
:102540003A6F23F4407342F480323A673A6F22F4D0
:1025500080323A673B673B6FDA077FF559AEFEF78B
:102560009BF841F2883980463B6F9B073FF550AEA0
:10257000FEF792F8A0EB08004845F5D9D5E7916839
:1025800021F4F81154E6494E336823F08063336038
:10259000FEF782F8074633681B0172D42268D7071A
:1025A00012D5636B83B9D6F88430D6F8841003F45F
:1025B000403301F070610B43616843EA8113A16805
:1025C00043EA0173C6F88430160303D5E36BB3F511
:1025D000801F05D0D0021ED5236CB3F5800F1AD111
:1025E0003249D1F88430D1F8840003F4403300F04C
:1025F000E0400343606843EA8013E06843EA006315
:10260000C1F88430D1F88C00636A20F01F00013BD0
:102610000343C1F88C30D10111D52449D1F884305D
:10262000D1F8840003F0706300F0E0400343606879
:1026300043EA8013206943EA0043C1F884309201E1
:102640000DD5236962681B0443EA8213E26843EAFA
:102650000263A26843EA0273144AC2F88430134E3C
:10266000336843F080633360FEF716F8074633683B
:102670001B013FF5D7AEFEF70FF8C01B6428F6D953
:1026800053E7FEF709F8C01B642884D94DE7FEF72D
:1026900003F8801B64287FF6CFAE46E7FDF7FCFF0A
:1026A000401B64287FF632AF3FE700BF003802408E
:1026B000036A23F0010370B50362036A4268846908
:1026C00023F002030D6824F4803424F073042C43B7
:1026D0008D682B430E4DA84202D00E4EB04211D150
:1026E00023F00803CE68A84243EA060323F004035C
:1026F00002D0084DA84205D14D6922F440728E697E
:1027000035432A4342604A6884614263036270BD74
:102710000000014000040140036A23F4807370B597
:102720000362036A4268C46923F400730D6824F4E9
:10273000803424F073042C438D6843EA0523114D43
:10274000A84203D005F58065A84214D1CD6823F4D2
:10275000006343EA05230B4DA84223F4806303D0B2
:1027600005F58065A84206D14D6922F440528E6974
:10277000354342EA051242604A68C461C26303629B
:1027800070BD00BF00000140036A23F4805330B5E0
:102790000362026A4468C36922F400520D6823F0A0
:1027A000807323F4E64343EA05238D6842EA053249
:1027B000084DA84203D005F58065A84204D124F451
:1027C00080444D6944EA85144460C3614B680364E6
:1027D000026230BD00000140036A23F4803330B54B
:1027E0000362026A4468436D22F400320D6823F4E8
:1027F000803323F070032B438D6842EA0542094D74
:10280000A84203D005F58065A84204D124F48034A1
:102810004D6944EA0524446043654B688365026260
:1028200030BD00BF00000140036A23F4801330B5BF
:102830000362026A4468436D22F400120D6823F0BB
:10284000807323F4E04343EA05238D6842EA05528E
:10285000084DA84203D005F58065A84204D124F4B0
:1028600080244D6944EA8524446043654B68C36510
:10287000026230BD000001400368DA6842F00102E4
:10288000DA60074A99680A40062A06D0B2F5803F06
:1028900003D01A6842F001021A600020704700BF9E
:1028A0000700010070477047704770477047036822
:1028B0001A69910710B504460FD5DA6892070CD54E
:1028C0006FF002021A6101229B690277990700F0FA
:1028D0008580FFF7E9FF0023237723681A695207F1
:1028E00010D5DA6850070DD56FF0040220461A6142
:1028F00002229B69227713F4407F75D0FFF7D4FF43
:102900000023237723681A6911070FD5DA681207A5
:102910000CD56FF0080220461A610422DB69227789
:102920009B0767D0FFF7C0FF0023237723681A694E
:10293000D00610D5DA68D1060DD56FF0100220460A
:102940001A610822DB69227713F4407F58D0FFF721
:10295000ABFF0023237723681A69D20708D5DA680A
:10296000D00705D56FF0010220461A6107F052FE2C
:1029700023681A69110608D5DA68120605D56FF0C2
:10298000800220461A6100F09AFA23681A69D0057D
:1029900008D5DA68110605D56FF4807220461A61F1
:1029A00000F08EFA23681A69520608D5DA685006D4
:1029B00005D56FF0400220461A61FFF777FF2368C4
:1029C0001A69910622D5DA6892061FD56FF02002A7
:1029D00020461A61BDE8104000F070BAFFF763FFAF
:1029E0002046FFF762FF76E7FFF75DFF2046FFF71F
:1029F0005CFF85E7FFF757FF2046FFF756FF93E799
:102A0000FFF751FF2046FFF750FFA2E710BD00007F
:102A1000304A0368904212D0B0F1804F0FD0A2F537
:102A20007C4290420BD002F58062904207D002F5C2
:102A30008062904203D002F57842904219D14A68F0
:102A400023F070031343234A904229D0B0F1804F02
:102A500026D0A2F57C42904222D002F580629042BC
:102A60001ED002F5806290421AD002F57842904260
:102A700016D0194A904213D002F5806290420FD0CE
:102A800002F5806290420BD0A2F59832904207D0B6
:102A900002F58062904203D002F58062904203D139
:102AA00023F44073CA6813434A6923F08003134335
:102AB00003608B68C3620B688362064B984203D045
:102AC00003F58063984201D10B69036301234361DD
:102AD000704700BF000001400040014010B50446AF
:102AE000A0B190F83D3003F0FF021BB980F83C2004
:102AF00008F0E4FA02232068211D84F83D30FFF736
:102B000087FF0123002084F83D3010BD012010BD57
:102B100010B50446A0B190F83D3003F0FF021BB998
:102B200080F83C20FFF7BEFE02232068211D84F8B8
:102B30003D30FFF76DFF0123002084F83D3010BDCC
:102B4000012010BD036A23F0100370B50362036A0D
:102B50004268846923F020030D6824F0807424F413
:102B6000E64444EA05248D6843EA0513104DA84263
:102B700003D005F58065A84214D1CD6823F0800309
:102B800043EA05130A4DA84223F0400303D005F59C
:102B90008065A84206D14D6922F440628E693543B2
:102BA00042EA850242604A6884618263036270BDC2
:102BB0000000014038B590F83C3004460220012B5B
:102BC00010D00123082A84F83D0084F83C3043D01B
:102BD00009D8FAB1042A2ED00123002084F83D3010
:102BE00084F83C0038BD102A47D0142A56D00C2A4D
:102BF000F2D12068FFF7C8FD23680969DA6942F459
:102C00000062DA61DA6922F48062DA61DA6942EA42
:102C1000012230E02068FFF74BFD236809699A69BB
:102C200042F008029A619A6922F004029A619A6954
:102C30000A439A61D0E72068FFF784FF2368096997
:102C40009A6942F400629A619A6922F480629A61F8
:102C50009A6942EA0122ECE72068FFF75DFD2368EC
:102C60000969DA6942F00802DA61DA6922F00402DD
:102C7000DA61DA690A43DA61AEE72068FFF7ACFD92
:102C8000236809695A6D42F008025A655A6D22F0AC
:102C900004025A655A6D0A435A659DE72068FFF79A
:102CA000C3FD236809695A6D42F400625A655A6D82
:102CB00022F480625A655A6D42EA0122ECE710B5AF
:102CC0000A43846842EA032324F47F442343836055
:102CD00010BD000090F83C30012B70B504464FF059
:102CE000020017D084F83D000123206884F83C30AE
:102CF0008268414B134083600B68402B65D015D828
:102D0000102B0CD007D853B10123002084F83D309C
:102D100084F83C0070BD202B01D0302BF4D18268A8
:102D200043F0070322F0700213431AE0602B34D003
:102D300019D8502BE8D14A68CE68016A056A21F09B
:102D40000A0125F001050A430562836923F0F003B7
:102D500043EA061383610262836823F0700343F041
:102D600057038360D0E7702B0CD0B3F5005FCBD155
:102D7000CB684A688968FFF7A2FF2268936843F42A
:102D8000804308E0CB684A688968FFF798FF2268AB
:102D9000936843F077039360B6E74D68CE68016AA5
:102DA00021F0100101628269036A22F4704223F06B
:102DB000A00342EA063243EA051382610362836894
:102DC00023F0700343F06703CBE74A68CE68016ADB
:102DD000056A21F00A0125F001050A4305628369AD
:102DE00023F0F00343EA061383610262836823F051
:102DF000700343F04703B4E78800FEFF01F01F01B2
:102E0000036A10B501248A408C4023EA040303625C
:102E1000036A1A43026210BD10B50446012200681D
:102E2000FFF7ECFF23680D4A934211D002F5806250
:102E300093420DD099680A4A0A40062A06D0B2F594
:102E4000803F03D01A6842F001021A60002010BDD2
:102E50005A6C42F400425A64ECE700BF00000140A3
:102E60000700010090F83C30012B4FF0020330B511
:102E70001FD00268104D80F83D30AA425368946814
:102E800003D005F58065AA4203D123F470034D6891
:102E90002B430D6823F07003896824F080042B43D2
:102EA000214353600123916080F83D30002380F876
:102EB0003C30184630BD00BF0000014070477047ED
:102EC0007047000038B5C26904460368816800692C
:102ED0001D68014360690143904811432840256AF9
:102EE0000143E0681960596821F440510143596079
:102EF000A1699868294320F43060014399608849AA
:102F00008B4217D1874B8849D3F8903003F00303E5
:102F1000B2F5004FCB5C29D1082B00F29D80DFE891
:102F200013F08C00E800EE009B00FA009B009B0071
:102F30009B0076007D498B4206D17A4B7C49D3F8C1
:102F4000903003F00C03E3E77A498B421DD1754BB7
:102F5000D3F8903003F03003102B00F0D9800ED856
:102F6000002B67D0B2F5004F76D01023082B73D812
:102F7000DFE803F0999FA272B4727272B700202B3F
:102F800000F0BA80302B3FD0ECE76B498B420DD17B
:102F9000644BD3F8903003F0C003402B00F0B880AE
:102FA000DED9802B00F0A880C02BECE763498B4270
:102FB00010D15C4BD3F8903003F44073B3F5807FAD
:102FC00000F0A680CCD9B3F5007F00F09580B3F572
:102FD000407FD8E75A498B421ED1524BD3F89030EC
:102FE00003F44063B3F5806F00F0928006D8002BA5
:102FF0007CD0B2F5004F2FD110238DE7B3F5006FD1
:103000007AD0B3F5406FF4D1B2F5004F69D163685F
:10301000580800F5803078E04A498B4224D1414B72
:10302000D3F8903003F44053B3F5805F70D015D8D7
:10303000002BDED1B2F5004F35D1FFF76BF8626897
:10304000530803EB4000B0FBF2F080B24FF6EF7391
:10305000A0F110029A421AD9012020E0B3F5005FD6
:103060004AD0B3F5405FCEE737498B42F4D12D4BC0
:10307000D3F8903003F44043B3F5804F48D07FF647
:103080006FAFB3F5004F37D0B3F5404F7BE720F07B
:103090000F03C0F3420022681843D06000200023D1
:1030A0002366636638BDFFF735F8636800EB5300AD
:1030B00008E0FFF73FF8F8E76368580800F5740088
:1030C00000F51050B0FBF3F080B24FF6EF73A0F1B3
:1030D00010029A42C0D82368D860DFE7FEF750FF9D
:1030E000E3E76368580800F50040EBE7B2F5004FEE
:1030F000DFD1FFF71FF8A2E7B2F5004FDCD163681C
:10310000580800F1F47000F59040B0FBF3F09CE734
:10311000B2F5004FE2D1FEF733FF90E7F369FFEF1E
:10312000001001400038024090C6000800440040F2
:1031300094C6000800480040004C00400050004089
:103140000014014000780040007C0040436ADA0728
:1031500010B506D50168846A4A6822F40032224319
:103160004A609C0706D50168C46A4A6822F4803226
:1031700022434A60590706D50168046B4A6822F465
:10318000802222434A601A0706D50168446B4A68C8
:1031900022F4004222434A60DC0606D50168846BB3
:1031A0008A6822F4805222438A60990606D5016813
:1031B000C46B8A6822F4005222438A605A0610D5F2
:1031C0000168046C4A68B4F5801F22F4801242EA58
:1031D00004024A6005D14A68446C22F4C0022243CA
:1031E0004A601B0606D50268816C536823F40023ED
:1031F0000B43536010BD2DE9F041069D04460F4678
:10320000164698462168CA6937EA02030CBF0122B4
:103210000022B24202D00020BDE8F0816B1CF2D047
:10322000FDF73AFAA0EB0800854201D3002DE9D161
:10323000236803201A6822F4D0721A609A6822F078
:1032400001029A6020236367A367002384F870302B
:10325000BDE8F0812DE9F7439846436F04460E46DA
:10326000202B91464BD1002947D0002A45D090F819
:103270007030012B43D00123002580F870302123CA
:10328000C5674367FDF708FAA3680746A4F850909E
:10329000B3F5805FA4F8529003D123690BB935468A
:1032A0001E46B4F852203B46CDF8008092B24AB98F
:1032B00040212046FFF79FFF50B9202384F870007B
:1032C000636706E0002280212046FFF794FF18B1D3
:1032D000032003B0BDE8F08322685EB935F8023BF5
:1032E000C3F308039362B4F85230013B9BB2A4F8D5
:1032F0005230D6E716F8013BF4E70120E9E7022057
:10330000E7E737B500250446C567FDF7C5F922682C
:1033100003461268120707D420230020636784F84D
:103320007000A36703B030BD6FF07E424FF4001110
:10333000204600922A46FFF75EFF0028ECD00320CB
:10334000F0E710B5044640B3436F1BB980F8703006
:1033500007F008FF2268242320466367136823F0E0
:1033600001031360FFF7AEFD012816D0636A13B1A5
:103370002046FFF7EBFE236820465A6822F490426D
:103380005A609A6822F02A029A601A6842F0010292
:10339000BDE810401A60FFF7B4BF012010BD40BA6D
:1033A00080B2704700BA704708B502F099FA02F08F
:1033B000ADFC02F0F8FC06F0DBFA03F071F9BDE8B1
:1033C000084006F06DBA437A8B421FBF002341725A
:1033D0008372C3827047000038B5838A04460D4665
:1033E0000233442B06D90A4B40F2825209490A485B
:1033F00008F096F8A38A280A2269D11881F8F0000B
:10340000991C0133A18212FA83F383F8F05038BD7E
:1034100011C9000846C9000887C9000870B5838A29
:103420001546023204460E461344442B06D90A4B75
:103430004FF4AE6209490A4808F072F8A38A22697B
:10344000D11881F8F060991C0133A18212FA83F33C
:1034500083F8F05070BD00BF11C900084EC80008C5
:1034600087C9000838B5838A04460D46432B06D920
:10347000074B40F27B520749074808F051F8A28AEF
:103480002369511C1344A18283F8F05038BD00BF5A
:1034900011C9000896C8000887C9000838B5838A92
:1034A00005460C460433442B06D9104B40F28A5291
:1034B0000F49104808F034F8AB8A200E2A69D11859
:1034C00081F8F000591C200C12FA81F181F8F0000B
:1034D000991C200A12FA81F181F8F000191D0333BA
:1034E000A98212FA83F383F8F04038BD11C90008AD
:1034F000D1C8000887C900082DE9F0410C461646DE
:10350000804650B9624B40F21D726249624808F031
:1035100007F86FF00F00BDE8F08151B95C4B40F245
:103520001E725E495C4807F0FBFF6FF00500BDE8C6
:10353000F081CB6833B1564B40F21F725849564860
:1035400007F0EEFF236933B1514B4FF4E462554964
:10355000514807F0E5FF00224FF49A71104602F03F
:10356000C5FDE060002800F08F804389B3F59A7FA5
:1035700006D2474B4FF4E5624B49474807F0D0FF6E
:10358000032E02D1637A032B07D1A37A474D13B9D7
:1035900008F042F828602B682360E36800255F6824
:1035A000012327613B707B7098F82830FD70BB7059
:1035B0002068FFF7F7FE2369042E78601D725D72A4
:1035C0009D72DD721D735D739D73DD7308D0F21FF4
:1035D000012A05D9032E06D1627A043A012A02D8BB
:1035E000D8F80420DA60002203F11C001A745A741F
:1035F0009A74DA741A755A759A75DA751A765A7653
:103600009A76DA7698F8285091B28D423AD90529FF
:1036100038D808EB020191F82910013200F8011B9B
:10362000102AF1D103F12C0203F16C01002002F801
:10363000010B8A42FBD103F1EC00002102F8011BCF
:103640008242FBD16FF07D006322F03303F8030C5C
:10365000532003F8042C03F8012C002203F8020C79
:10366000A18203F8012B0132442AFAD1012220461B
:103670003521FFF7D3FE20463146FFF7F3FE002049
:10368000BDE8F0810021C8E74FF0FF30BDE8F081D0
:1036900011C90008D2C6000887C90008F1C6000891
:1036A0000FC7000834C700085BC70008A800002047
:1036B00038B5046A054608212046FFF784FE00223B
:1036C00004F12801284601F0ADF9A37AFF2B1CBFB5
:1036D0000133A3720123E38238BD000037B50546EC
:1036E00040B93A4B40F2FE3239493A4807F018FFE8
:1036F00003B030BD046A24B9344B4FF480623649BC
:10370000F3E700232384636B5A1C0BD03C221E3347
:10371000B3FBF2F34FF6FF72934228BF1346002B20
:1037200041D06384A36B581C0DD03C221E33B3FBE5
:10373000F2F34FF6FF72934228BF1346002B34D0AA
:103740002383238BA383E36B591C0CD03C221E33B1
:10375000B3FBF2F34FF6FF72934228BF134633B325
:103760006383638BE383638B228B9A4202D30BB117
:1037700000232383E37AE3B1E36A0093236B01938D
:103780002BB9A36A009A134043F08073019320463B
:103790000A21FFF718FE01AB6A4604F1280128460A
:1037A00002F024FBA4E70123BBE70123C8E70123C0
:1037B000D6E794F828301A0601D4FF23DDE7BF2BA3
:1037C0008CBF6FF07F434FF6FF73D6E711C9000837
:1037D000A1C6000887C90008BAC6000838B5154D4B
:1037E0002B78F3B9144C23682BB1144BD92214490C
:1037F000144807F095FE06F06FFA2060B0B1027A27
:10380000114942F020020272442206F04BF9432291
:103810000D49206806F01CFA00220C49206806F0C9
:103820003FFA2B78002001332B7038BD4FF0FF306A
:1038300038BD00BFA4000020A000002011C900086E
:1038400029C8000887C900080CCE00084D3C0008B4
:1038500010B5044640B9174B40F28272164917481A
:10386000BDE8104007F05CBE036933B9114B40F26C
:1038700083721349114807F053FEA38A432B06D9DC
:103880000C4B40F284720F490C4807F049FEA38AA2
:103890002269591C1344A182FF2183F8F0100021F2
:1038A000A38A432B00D910BD581C1344A08283F86F
:1038B000F010F5E711C90008AFC9000887C9000872
:1038C000D1C90008FDC9000838B50023174D0446CA
:1038D000C3620363EB7813B1154BDB6843632B7949
:1038E000DBB1134B1B69A3636B79CBB1104B5B69E5
:1038F000E36363681B69A362AB792BB10C4B9869D6
:10390000FFF750FD0123E062E372EB7923B1084B2E
:10391000D869FFF747FD206338BD636B5B08E2E7BA
:10392000636BC3EBC303DB08E2E700BF5802002070
:103930006002002010B5044640B9114B40F26D7290
:1039400010491148BDE8104007F0EABDC36833B91B
:103950000B4B40F26E720D490B4807F0E1FD2369F5
:1039600033B9074B40F26F720949074807F0D8FD99
:10397000E06808B102F058FB0023E360236110BD4A
:1039800011C90008BFC7000887C90008DDC70008C3
:1039900002C8000873B50023046A06460621A36224
:1039A0002046FFF710FD012221463046FFF7A4FD17
:1039B000054678BB022239212046FFF72FFDF18C06
:1039C0002046FFF709FD032237212046FFF726FD99
:1039D00001212046FFF746FD03212046FFF742FD67
:1039E0001C212046FFF73EFD2046FFF731FFA18A4C
:1039F000E068F03189B202F059FC124B1248019391
:103A000043230096114AE168006806F09FF82046BB
:103A1000FFF790FFA37A2846FF2B1CBF0133A37248
:103A2000A27A052A96BF4FF47A734EF6602393402C
:103A30004FF4FA7203F2F31393FBF2F3E38202B052
:103A400070BD00BF0CCE0008A000002010CE000802
:103A500073B5046A064601212046FFF7B4FC032231
:103A600021463046FFF748FD0546002847D102228F
:103A700039212046FFF7D2FCF18C2046FFF7ACFC41
:103A8000042232212046FFF7C9FCA06AFFF78AFC16
:103A900001462046FFF702FD042236212046FFF7AB
:103AA000BDFC606AFFF77EFC01462046FFF7F6FC8E
:103AB000032237212046FFF7B1FC01212046FFF702
:103AC000D1FC03212046FFF7CDFC1C212046FFF747
:103AD000C9FC2046FFF7BCFEA18AE068F03189B23C
:103AE00002F0E4FB114B1248019343230096114A64
:103AF000E168006806F02AF82046FFF71BFFA37A6A
:103B00002846FF2B1CBF0133A372A27A052A96BF59
:103B10004FF47A734EF6602393404FF4FA7203F237
:103B2000F31393FBF2F3E38202B070BD0CCE0008F6
:103B3000A000002010CE000873B5046A06460321D9
:103B40002046FFF740FC032221463046FFF7D4FC15
:103B5000054600283AD1022239212046FFF75EFCB3
:103B60004FF410712046FFF737FC04223221204623
:103B7000FFF754FCA06AFFF715FC01462046FFF74B
:103B80008DFC032237212046FFF748FC0121204607
:103B9000FFF768FC03212046FFF764FC1C21204648
:103BA000FFF760FC2046FFF753FEA18AE068F03182
:103BB00089B202F07BFB134800964323124AE16866
:103BC000006806F029F82046FFF7B4FEA37A2846DD
:103BD000FF2B1CBF0133A372A37A092B96BFC3EB43
:103BE000431242F2107303EB82034FF4FA729CBF4C
:103BF000DB009BB203F2F31393FBF2F3E38202B018
:103C000070BD00BFA000002010CE000838B50A4DDE
:103C10002B782BB9094BF32209490A4807F080FC9D
:103C20002C78013CE4B22C7024B9074D286806F0CA
:103C30003BF82C6038BD00BFA400002011C900086B
:103C40009BC7000887C90008A0000020AD4B2DE9E4
:103C5000F04F5D6889B0D5F820900192B9F1000F5E
:103C60004DD099F80830002B46D0D9F8043054686C
:103C700033B1A54B4FF4D562A449A54807F050FCD9
:103C8000019B5B892B2B37D92378022B34D195F8F4
:103C9000280005F1290204F11C010023DEB2B04224
:103CA00001D9062B21D16068FFF77CFBD9F80030E1
:103CB000984221D1974B002201995A6049891A6094
:103CC0002B2919D901994FF0F00B039249680293FF
:103CD000C9F804100199B1F808A0019E73895B45E9
:103CE00013D973685C460493E6E012F8017B013354
:103CF00011F8016BB742D1D00023C9F80430019804
:103D000002F092F909B0BDE8F08FABEB0302AAEB29
:103D1000030A36681FFA82FB1FFA8AFA002EDDD1E9
:103D2000EAE73368002B00F072815B681B78D6E00D
:103D3000013C00274FF0FF38A4B23B46023413FA8F
:103D400084F4A4B247B30023B8F1070F079306D950
:103D50006D4B40F2366270496D4807F0E1FB029B03
:103D600013F80830C3B9BAB2059B07A930460592CB
:103D700002F0F6FB059B8342BED1042F40F0888001
:103D80000798FFF70FFB07900123029A02F808300B
:103D9000079B624A42F828307389A34200F28C8064
:103DA000E41AAAEB030AA4B21FFA8AFA54457AD39A
:103DB000029B1B78002B40F0BF80039B002B40F040
:103DC000C480029B5B78002B96D0544A1379052B54
:103DD00040F0D78099F80930012B40F0C780286A5D
:103DE000FFF772FD95F82F3028461B0740F1C6807B
:103DF000FFF75EFC80E7042B2FD0434B40F2F652D6
:103E0000474905E0032B2CD83F4B40F2FB52454974
:103E10003F4807F085FB6FE7012B04D03A4B40F297
:103E200017624149F4E7BBF1F00F22D0364B40F264
:103E300019623E49ECE7012B23D0334B40F21D625F
:103E4000EFE7042B19D0304B40F22162D8E7042B66
:103E500017D02D4B40F22562D2E71F464FF00608DF
:103E60006CE74FF00708042768E71F464FF0030888
:103E700064E71F464FF0000860E71F464FF0020856
:103E80005CE71F46984659E71F464FF0050855E77F
:103E9000012F04D01C4B4FF4C9622549B8E79DF8A7
:103EA0001C30079370E7366826B9174B40F254620E
:103EB0002049ADE7736804935445BFF479AF049B80
:103EC0001A5DFF2A3FF474AFA31C71899BB205935E
:103ED000631C8B42BFF625AF049B23445B78342AD6
:103EE0009AD000F28380012A85D0FFF421AF032A03
:103EF00088D0332A40F09B80042BB6D0024B40F28E
:103F000009627DE74002002011C900083CCA000890
:103F100087C90008580200208ACA000860020020F1
:103F20004FCA000858CA00086ACA000873CA0008C5
:103F30009BCA0008AECA0008444B002202991B68C5
:103F40000A70012B0DD0022B06D100234FF06C0A12
:103F50004FF02C0B0393C0E6032B7FF42EAF01230D
:103F600003934FF0EC0A4FF06C0BB6E6033B022BC9
:103F70003FF6C2AE286AFFF7A7FC2846FFF7AEFB64
:103F8000BAE6062B15D199F80930DA1E022A02D9B1
:103F9000012B7FF4B1AE286A0C21FFF714FA2C4BE9
:103FA00028461A46194601F021FF2846FFF7F2FC81
:103FB000A2E6022B7FF4A0AE99F80930062B7FF41D
:103FC0009BAEBDF80C302C6AA9F81630029B9B788A
:103FD000002B3FF491AE9068FFF7E4F963686062EC
:103FE00028461B69A362FFF733FD85E6362A3FF4B6
:103FF00028AFFFF420AF3A2A3FF429AF3B2A16D16D
:10400000042B3FF441AF134B40F22962F8E6342A07
:104010003FF404AF0FD8012A3FF4EFAEFFF488AEAF
:10402000032A3FF4F1AE332A3FF468AF0023059A28
:104030001A4494B2B0E6362A3FF405AFFFF4FDAE61
:104040003A2A3FF406AF3B2ADDD0EFE760020020BA
:104050000CCE000811C9000837B5054648B9244BF5
:1040600040F27B322349244803B0BDE8304007F0DA
:1040700057BA046A002C39D0637A082B36D10A6803
:10408000A36A9A4232D10C212046FFF79CF9042200
:1040900021462846FFF730FA08BB04223221204689
:1040A000FFF7BCF9A06AFFF77DF901462046FFF74C
:1040B000F5F92046FFF7CCFBA18AE068F03189B220
:1040C00002F0F4F80D4B0E480193432300950D4A7E
:1040D000E168006805F03AFD2046FFF72BFCA37A63
:1040E000FF2B1CBF0133A3721423E38203B030BD46
:1040F00011C90008ACC6000887C900080CCE00082A
:10410000A000002010CE000873B5046A0646052101
:104110002046FFF758F9032221463046FFF7ECF915
:10412000054670BB022239212046FFF777F9F18C52
:104130002046FFF751F9032237212046FFF76EF999
:1041400001212046FFF78EF903212046FFF78AF967
:104150001C212046FFF786F92046FFF779FBA18A4C
:10416000E068F03189B202F0A1F8134800964323C9
:1041700004F12402E168006805F04EFD2046FFF7D7
:10418000D9FBA37A2846FF2B1CBF0133A372A37A65
:10419000092B96BFC3EB431244F6206303EB820363
:1041A0004FF4FA729CBF1B019BB203F2F31393FB13
:1041B000F2F3E38202B070BDA000002010B540B958
:1041C0000F4B40F242520F490F48BDE8104007F034
:1041D000A7B9046A94B1636833B1094B40F24F52F6
:1041E0000A49094807F09CF900212046FFF7EBF83F
:1041F000237A1BB1FFF70AFD0023237210BD00BF15
:1042000011C900081ECB000887C900083CCA000875
:1042100038B5054648B9274B40F2D62226492748EB
:1042200007F07EF96FF00F0038BD90F82F30DB07F4
:1042300004D4204B40F2D7222149F0E7C38C046A12
:10424000B3F5107F02D24FF0FF3038BDD4B9402013
:1042500001F088FC04460028F5D0286240220021A5
:10426000204607F0A9F8FFF7B9FA0028EBD101239F
:1042700028462372FFF78EFB0028E6D02846FFF77A
:104280009DFFE0E7E36833B10A4B4FF43C720D4900
:104290000A4807F045F9636833B1064B40F2F12252
:1042A0000949064807F03CF9237A002BD6D0FFF7DE
:1042B000ADFCD3E711C90008ACC6000887C90008E7
:1042C000E5CA000806CB00083CCA000858B1006ADD
:1042D00048B1407A0A2805D0043801288CBF002054
:1042E0000120704701207047F0B5046A85B006468A
:1042F000002C47D0636A0393FFF7E8FF00210546CF
:104300002046FFF760F800236362A362E362236341
:10431000E363A363636363842384E383A38375B349
:10432000072221463046FFF7E7F8054608BB04AFF1
:10433000042236212046FFF771F857F8040DFFF7E5
:1043400031F801462046FFF7A9F82046FFF780FA2A
:10435000A18AE068F03189B201F0A8FF0B4800960D
:1043600043233A46E168006805F056FC2046FFF713
:10437000E1FA074B30461A46194601F037FD284648
:1043800005B0F0BD6FF00F05F9E700BFA0000020F9
:104390000CCE0008514B2DE9F7431D6840F2192659
:1043A0004F4FDFF8408115B903B0BDE8F0832C6AA8
:1043B0007CB1637A6BB1618C69B1228C013292B2AB
:1043C0009142228407D12846FFF78EFF2846FFF747
:1043D000E1FA2D68E7E7B4F81E90B9F1000F64D058
:1043E00009F1FF32B9F1010FE2835ED1013BDBB28B
:1043F000092BEED826FA03F3DB07EAD50421204681
:10440000FEF7E1FF032221462846FFF775F860BB5F
:10441000022239212046FFF701F8E98C2046FEF7F9
:10442000DBFF032237212046FEF7F8FF49462046EE
:10443000FFF718F803212046FFF714F81C21204647
:10444000FFF710F82046FFF703FAA18AE068F03181
:1044500089B201F02BFF009543234246E16838689A
:1044600005F0DAFB2046FFF765FAA37AFF2B1CBFA5
:104470000133A372A37A092B96BFC3EB431242F216
:10448000107303EB82034FF4FA729CBFDB009BB204
:1044900003F2F31393FBF2F3228CE382638C9B1AF7
:1044A000012B96DD5B10E38393E7A28B002A90D06B
:1044B000511E012AA1838CD103F0FB02012A01D0F5
:1044C0000A2B86D12846FFF71FFE638B228C9B1A8E
:1044D000012BC4BF5B10A3837BE700BFDC37002048
:1044E000A000002010CE000838B51D4B00251C6828
:1044F00004B938BD236A23B1DA8A012A03D9013A03
:10450000DA822468F4E7FCD15A7ADD820C2A01D0E1
:10451000062A03D12046FFF73DFAF2E7012A09D126
:104520009B7A2046052B02D8FFF792FAE9E7FFF7BE
:10453000DBFEEFE7082A09D19B7A2046012B02D83F
:10454000FFF7B6F8DDE7FFF7C9F8DAE7032AD8D1B5
:104550009B7A2046012BDED8FFF7EEFAD1E700BFA9
:10456000DC37002070B51826074C05464643A05995
:1045700018B101F059FD0023A351182303FB054492
:104580000023237570BD00BFAC0000202DE9F34768
:104590000B9D894692469846074630B92C4B4FF4FE
:1045A0008B622C492C4806F0BBFF00221C21022004
:1045B00001F09CFD0646002847D043891B2B06D8F6
:1045C000234B40F264422549234806F0A9FF746852
:1045D000BDF83400FEF7E3FEE08097F82830062BA4
:1045E00006D01B4B40F26B421D491B4806F098FF5A
:1045F000D8F800304A4631463846A360B8F804304F
:10460000A3812B68C4F81230AB880025E3820A9B93
:104610001B68C4F80E300C9B1B682570A361012336
:10462000E57063700823A37006232371042363716C
:1046300040F606030093534605F0BEFB304601F0FA
:10464000F3FC284602B0BDE8F0874FF0FF30F9E7F1
:104650002CCC0008ACC6000887C9000863CC000851
:1046600094CC00082DE9F74F3E4B0A220546002066
:104670009446144681468046834696461E460191DE
:10468000BEF10A0F1F7D11D197B94FFA80FE01309C
:1046900018330A28F4D1019B990704D4BEF10A0FFC
:1046A0001CD1DB0735D44FF0FF3009E0002FEED0EE
:1046B000002D4AD029688A4659688A4545D140B2BA
:1046C00003B0BDE8F08FC245E1D34FFA80FCD0467D
:1046D000DDE7CA4524BF44B2D146D8E75FFA8EF77A
:1046E000182303FB07631B7D33B11F4B40F2871276
:1046F0001E491F4806F014FF25B118232A6803FB42
:1047000007635A60182378B203FB0766002373829D
:10471000D6E70A2C0FD01823E7B25C43335933B1E4
:10472000114B40F26F121349114806F0F9FE38465A
:10473000FFF718FFD4E7BCF10A0F02D05FFA8CF73D
:10474000F5E70A2AAFD0D7B2F1E7012FB3F812A0EC
:10475000BFD11F68002FB6D0DA4598D342B2D346F6
:1047600095E700BFAC0000202CCC00084ECB000821
:1047700087C9000837CB000870B50646074D0024EE
:104780002B7D2BB1AB68B34202D12046FFF7EAFE86
:10479000013418350A2CF3D170BD00BFAC000020E5
:1047A0002DE9F047804686B00C4649B94A4B4FF494
:1047B00022724A494A4806F0B3FE06B0BDE8F087C7
:1047C00045682B88B3F5807F08D12B79062B05D15E
:1047D0006B79042B02D16B88082B03D0404601F083
:1047E00023FCEAE7D5F80E304E680593AB6916B1A5
:1047F0009B1B5E425E41002E94F8283005F10807AD
:1048000014BF4FF001094FF00209062B06D0324BBE
:1048100040F2AB123349324806F082FE0598002878
:104820003CD0214600F0A9FC8246B8BB059B03F0B2
:10483000F003E02B32D0494605A8FFF713FF00280C
:104840002CDB1822284B4FF0020C02FB00F103EB8B
:10485000010E8EF814C04FF00C0CCEF8084012FB7D
:1048600000C2386803EB020C9850BA88ACF80420F8
:1048700053F80190AEF812A0B9F1000F0ED043F832
:1048800001A04FF4006304F1290249460093204639
:104890003B4605F091FA484601F0C6FBEB88B3F5BC
:1048A000807F07D0B3F5007F98D105A92046FFF798
:1048B000D3FB93E7002E91D0022204F12903019744
:1048C0002046039205AA19460292221D00923A46FA
:1048D000FFF75CFE82E700BF2CCC0008ACC60008E6
:1048E00087C9000896CB0008AC0000201FB502461F
:1048F00000F1290302910124054904320394019136
:1049000019460092034AFFF741FE04B010BD00BFF4
:104910005AE20008EEE10008F8B5134C0025022623
:104920000427227C6AB1E38901339BB2B3F5967FF9
:10493000E38103D2012A09D1042B0BD92846FFF7C2
:1049400011FE013518340A2DEBD1F8BD032A06D12A
:104950002774F6E721466068FFF7C8FFF1E7042AED
:10496000EFD12674EDE700BFB00000202DE9F04341
:104970001446274D182285B00646884602FB04528D
:10498000127D012A06D8234B40F2ED22224923480A
:1049900006F0C6FD182106F1290701FB045999F814
:1049A0001430022B0DD1B9F81230B3F58E7F17D920
:1049B000494630460431FFF799FF10B9032389F8BF
:1049C000143018234FF400624146304603FB045371
:1049D00000923A460C3305F0EFF905B0BDE8F083DC
:1049E000B3F5877FEDD304EB440301213046DB00B0
:1049F0000391394603F10C0204332B442A440293F9
:104A0000074B0193331D00933B46FFF7BFFDD4E7EF
:104A1000AC0000202CCC0008BACB000887C90008E5
:104A20005AE200082DE9F3478946804601461646BA
:104A3000D9F8000000F0A1FB044600285ED1D9F8A7
:104A4000003003F0F002E02A58D0002B56D00121AC
:104A50004846FFF707FE051E53DB404F182303FBB4
:104A600005731A7D1AB90124C3F808801C75182330
:104A700003FB05731B7D33B9394B40F2C932394909
:104A8000394806F04DFD0CB9002E3CD14946404650
:104A9000FFF72CFF002E38D102B0BDE8F087FBD124
:104AA0003446DFF8BC80DFF8C890DFF8BCA09CB9C2
:104AB000304601F073FC002E4CD0B046182303FBA7
:104AC00005F21C46B85808B101F0AEFA04FB05F334
:104AD000002047F80380DFE7628923899A4208D1E2
:104AE000236833B143464FF47B724946504606F083
:104AF00017FD237B012B1ED12468D8E76FF00F0030
:104B0000CAE72846C8E74FF0FF30182303FB0572B9
:104B1000127D012AC3D9154A3146404615700C2230
:104B200013FB05234FF400623B44009208F1290275
:104B300005F042F9B0E700222189022001F0D6FAFF
:104B4000804638B1314601F081FC0028B6D040469D
:104B500001F06AFA4FF0FF309EE700BFAC00002082
:104B60002CCC0008EACB000887C900089C01002073
:104B700012CC0008F0B50E4685B01546044630B993
:104B80003E4B40F21B323E493E4806F0C9FC36B966
:104B90003A4B4FF447723C493A4806F0C1FC35B9EC
:104BA000364B40F21D323949364806F0B9FC2146F1
:104BB000286800F0E2FA00285AD12B6803F0F002CE
:104BC000E02A1DD101238DF809008DF808305E23FD
:104BD0008DF80A306B7803F07F038DF80B30AB78DB
:104BE0008DF80C30EB788DF80D3002AB4FF400628D
:104BF00031462046009204F1290205F0DDF81FE05D
:104C00006268A1685A400A4208D09BB24FF6A96276
:104C1000934203D0E3686BB304F10C051C4B1820DE
:104C20001C491A7800FB0210017D0129194609D997
:104C30002F6843689F4205D131462046FFF796FE14
:104C400005B0F0BD134B0022187D012806D92F684E
:104C50005868874202D1D2B20A70EDE701321833A8
:104C60000A2AF1D1324629462046FFF7DBFEE7E764
:104C7000094BBBE76FF00300E2E700BF2CCC000854
:104C8000ACC6000887C9000807D6000877CB000823
:104C90009C010020AC000020EEE10008F0B50446C5
:104CA00087B00F46164624210022012001F01EFA8B
:104CB0000546A0B34389232B06D81A4B4FF4B17293
:104CC00019491A4806F02CFC226800236C6802F18E
:104CD0001C00237104F108016371A371E371134691
:104CE0002770667053F8046B834241F8046BF9D166
:104CF00006AED36846F8043D304600F0BBF858B124
:104D0000002101233246A170E170029028468DE80F
:104D10000A00FF2300F020FA284601F085F907B0C9
:104D2000F0BD00BF3CCD000871CD000887C9000868
:104D3000454B2DE9F043D3F8089085B004468846EA
:104D400099F800501F4605F00F05AD00132D2AD924
:104D50004289032A27D942681278082A23D1586940
:104D600000F0F002E02A1ED0196800F006FA0646AC
:104D7000C8B92389072B16D905F10E01204601F089
:104D80004DF900284FD0218932460220294489B2AA
:104D900001F0ACF9064630B1428905F108039A42A8
:104DA00007D201F041F9204605B0BDE8F04301F01B
:104DB0003BB949462A46406806F0F3FA6942304654
:104DC00001F02CF938B1214BAF222149214806F0DE
:104DD000A7FB3046E5E72146304601F037FB0028C7
:104DE000F7D12046344601F01FF92946204666686F
:104DF00001F014F902460028D5D161687B69CB60C7
:104E00003B690B61FF233070B070F0700B728872D9
:104E1000C8720121009020460191CDF808800E490A
:104E200000F09AF9BFE7C5F57F412046F23109B29B
:104E300001F0F4F80028D8D0044BC02207490548F7
:104E400006F06EFBAFE700BF400200203CCD00083B
:104E5000D5CC000887C90008540200200ACD0008FC
:104E60000A4604300321FFF719BF0A4604300B211C
:104E7000FFF714BF134B30B51B686BB9124A1268A9
:104E8000EAB192F82F1001F00501052917D15168F8
:104E9000002918BF134612E093F82F4004F00502D2
:104EA000052AE9D15A68002AE6D001689D684A407F
:104EB0002A4204D0A207DFD4DA689142DCD1184636
:104EC00030BD00BFDC370020E03700202DE9F84F6F
:104ED00047680546884697F800904FEA1913042B57
:104EE00005D0284601F0A0F80020BDE8F88F7888AA
:104EF00009F00F09FEF753FA2B894FEA8909044696
:104F0000834203D90146284601F0D0F96B894B450D
:104F1000E7D32B89A342E4D3B9F1130FE1D93B695D
:104F20004F4C636103F0F003FA68E02B226113D168
:104F300098F82F30DA0704D5D8F80430002B40F069
:104F40008D807B7A112B05D107EB09035B88B3F5C4
:104F5000884F59D0002618E046464FF0010ADFF886
:104F600004B196F82F30DB0704D4BAF1000F3ED11C
:104F7000366841E07368002BF7D06069834204D043
:104F8000314600F0FAF80028EFD0206948B14146D8
:104F900000F0F3F80028A4D1236903F0F003E02B1C
:104FA0009FD0002E9DD0FB8823F0C00333B128464C
:104FB00000F012FA0546002896D04768A760C9F1AC
:104FC0000001284684E840013B7803F00F039B0072
:104FD000A38101F023F87B7A062B23D0112B15D067
:104FE000012B24D141462846FFF7A2FE12E0237D83
:104FF0007F2BA6D0DBF8006046454FF0000A08BFC3
:105000003668002EADD19CE74646CAE741462846A1
:1050100004F0B0FC002323606360A360A3812361DC
:10502000636161E74146284602F07EFFF2E73146C0
:10503000606900F0A2F868B9636903F0F003E02B3F
:1050400008D04946284600F0ECFF6F600221284650
:10505000FFF706FF284600F0E7FFDBE7464694E748
:1050600040020020DC3700202DE9F3471F46C389AA
:1050700005468A46012B1646DDF8308006D0304BB7
:1050800040F233322F49304806F04AFA002E47D01A
:105090001421284600F0C2FF00284ED16B896C68AD
:1050A000132B06D8264B40F261322849264806F0D9
:1050B00037FA9DF82C302772002763723368DFF8C7
:1050C00094902361452323709DF8283063702889CC
:1050D000FEF765F9A7716080E771B9F80000FEF787
:1050E0005EF9B9F80030A0800133A9F80030BAF1B8
:1050F000000F12D1164B1B68E360A772E772B8F875
:1051000026309BB12A899A4210D932464146284618
:1051100000F00CFB02B0BDE8F087DAF80030EBE7F6
:105120006B6802AE1B6946F8043DE8E7D8F8143016
:105130003246294640469847ECE76FF00100E9E720
:105140009DCD0008D1CD000887C90008DDCD00083D
:105150000CCE00089E010020F0B4069C9DF8105073
:105160009DF814601AB109B10F6807B9211D0694A2
:1051700005960495F0BCFFF777BF431E033311D8A3
:1051800091F82F3013F002030ED04A6890420BD0F2
:105190008B6842401A4207D1DB4383430CBF012096
:1051A00000207047012070470020704738B50C4B35
:1051B00004460D461A68824207D102681A602146E9
:1051C0000420BDE8384000F0CBBD31B9054B40F2BA
:1051D00045120549054806F0A3F923682B60EEE760
:1051E000A4010020F9CE000832CF000887C90008CA
:1051F00081422DE9F84F05460F4605D12F4BAB22D2
:105200002F49304806F08CF947B13B689D4205D0E4
:105210002A4BAD222C492B4806F082F96E68736840
:105220009A8892BB1A6805F11C016A6005F10802B0
:1052300052F8040B8A4243F8040BF9D1012130469D
:10524000FFF713FE304601F0A1F80446304600F0A7
:10525000EBFE6E68DFF86480DFF87890DFF864A01A
:10526000AEB92846194D3946FFF7A0FF2B88A34257
:1052700005D2124BD2221649124806F051F92B885A
:1052800020461B1B2B80BDE8F88F0024E1E77368E4
:105290003046D3F800B001F079F80444B4F5803F0B
:1052A00005DB4346CC224946504606F039F93046E4
:1052B000A4B200F0B9FE5E46D2E700BFF9CE000806
:1052C0004BCF000887C9000857CF0008A001002075
:1052D00086CF000869CF00082DE9F04106460F4649
:1052E0000025DFF868800024D8F800302146A64663
:1052F000204653B910B1FFF77BFF0544BD4201DAE8
:10530000012CF0DC2846BDE8F081D6F80CC05A69C3
:10531000624509D1D6F810C09A69624504D1B3F844
:105320000CC0B288944508D0013460B1C27F93F8B4
:105330001FC094459CBF714618461A68002A18BFC2
:105340009E461346D5E771461846F6E7A4010020AD
:1053500010B5044630B9064B40F2AE220549064866
:1053600006F0DEF821460520BDE8104000F0F8BC4C
:10537000F9CE0008C3D5000887C9000810B5044657
:1053800030B9084B4FF42E720749084806F0C8F8A8
:10539000606908B100F048FE2046BDE81040FFF704
:1053A000D7BF00BFF9CE0008A1CF000887C9000809
:1053B00038B5084B0024186800B938BDC37F0568AC
:1053C00023B1013B0446C3772846F5E72146FFF7A2
:1053D0000FFFF9E7A40100202DE9F74F45680746C4
:1053E0002B7803F00F03052B40F08C80E888FDF745
:1053F000D6FFC0F30C00B24C4FEAC0096888FDF735
:10540000CEFF2B7803F00F03A0EB830083B2384666
:10541000019300F0BBFF2388824603440A2B68DC1B
:10542000A84E3468002C72D1042000F07DFC0446A4
:1054300058B951462846FFF74FFF824562DC0420E9
:1054400000F072FC044600285CD020220021204697
:1054500005F0B2FF032304F1080205F11401E3771C
:105460003368346023602B4653F8040B8B4242F8B8
:10547000040BF9D1B5F806B01BF0200B08D1019B45
:105480004B449BB299453DD84FF6EB72934239D8C5
:105490007D686888FDF783FF95F8008008F00F08A5
:1054A000A0EB8808E888FDF77AFFC0F30C001FFA2C
:1054B00088F8D4F804E0C0007E680025724608EB46
:1054C00000034FF0010835709BB27570B570F57030
:1054D000B080F38052BB002D40F09280BEF1000FEF
:1054E0007DD0794B4FF4DA727849794806F018F894
:1054F00075E001462846FFF7EFFE18B123885344B4
:105500000A2B8DDD384600F08FFD0025D4E0EB68D6
:1055100062699A4208D12B69A2699A4204D1A28990
:10552000AB889A4200F0DC8024687BE7D2F804C0A4
:10553000BCF80410884254D23260002D4DD0EA8865
:105540009042C0F091808B4200F28E8090422F609A
:1055500040F0E480BBF1000F04D0A37F13F00103FF
:1055600000F0DA80B8F1000F59D14FF00008544E26
:1055700033889A44A6F800A0BBF1000F07D1019B25
:105580009944A37F43F00103A4F81C90A377B8F1DA
:10559000010FBAD1A38B04F11C011433A3836368F8
:1055A0005D6804F108032F682A4653F8040B8B4208
:1055B00042F8040BF9D1A08BFDF7F1FE00236880BF
:1055C000AB71EB71AB72EB726568002F57D13D4B3D
:1055D00019688C4265D1394665E08B4244D86760D2
:1055E000B8E741D0BCF8062082423DD825B1EA8810
:1055F0008A4218BF4FF00008DCF80020654669E7D2
:10560000EB88834206D9304B40F2AB123149304827
:1056100005F086FF2F60EA88B3889A4298E76368AE
:10562000002BA2D059688B88002B9ED133689BB980
:10563000B14206D1244B4FF4EB722749244805F0C0
:105640006FFF3368002B92D01F4B4FF4EC7223494D
:105650001F4805F065FF8AE75A68F08893889842EA
:1056600083D113681646E2E7384600F08FFE144AED
:105670001388181A1080384600F0D6FC42E7D7F895
:1056800004806FF01301384600F0C8FC3946284604
:1056900000F098FED8F8007097E70B689C4202D0A3
:1056A00019460029F9D12046FFF780FD284600F071
:1056B0006DFE3388181A3080284603B0BDE8F08F9D
:1056C000A0010020A4010020F9CE000893CE00081C
:1056D00087C9000875CE0008CACE0008D7CE0008DA
:1056E000E888FDF75CFEC0F30C0000287FF4C2AE32
:1056F000E089FDF754FEC0F30C0000283FF4BAAE79
:105700002B4604F1080205F1140153F8040B8B42F7
:1057100042F8040BF9D1ADE6984628E7BBF1000F3B
:105720003FF423AF4FF0000817E700BF2DE9F04F1B
:10573000B1F8268008238BB00746A8F114088B46E1
:10574000089298FBF3F81FFA88F3069343681E78D3
:10575000029306F00F06B600142E0BD05A4B40F2FF
:10576000E1225A495A4805F0DBFE6FF005000BB004
:10577000BDE8F08F029BD888FDF711FEC0F30C0343
:1057800010F40054049304D04F4B40F2E6225149E8
:10579000E8E73D891FFA88F8143D4FEAC803ADB227
:1057A00007930DB92846E2E7079B00221421022047
:1057B000AB42A8BF2B469BB2059300F097FC8046F6
:1057C00070B37B89132B06D83F4B40F20932424914
:1057D0003F4805F0A5FE029BD8F804201946143175
:1057E00053F8040B8B4242F8040BF9D1D8F804307B
:1057F000DDF814900393B9F1000F37D07C89A41B16
:10580000A4B24C4528BF4C4614B93F680026F2E7C5
:10581000052000F089FA824628B9404600F004FCD1
:105820004FF0FF30A3E7019402227B682146334406
:1058300000930346042000F0B9FB18B95046FFF767
:1058400087FDEAE70990A9EB0409384600F0A6FDB8
:10585000224B1FFA89F9CAF81470CAF81030404672
:10586000099900F0AFFDB9F1000FCED1049B264499
:10587000C3F30C00BBF82630B6B2133B9D42A8BF61
:1058800040F40050FDF78BFD039BD880059B03F18E
:10589000140080B2FDF783FD039B039A41465880B4
:1058A000002358469372D372DBF81430089A984755
:1058B000404600F0B9FB059B069AED1A049B134481
:1058C000ADB29BB204936CE7F9CE000814CE000889
:1058D00087C900083BCE000855CE00087D5300085C
:1058E0000B4B00210B4A23F0030313604FF4C862F3
:1058F00059809818197108491A8008600121A3F885
:105900004026A3F84226054A83F8441613607047E0
:1059100083020020AC010020B0010020A80100207B
:105920002DE9F0410446002800F08980830706D065
:10593000444B4FF4D6724449444805F0F1FD444FBE
:105940003B689C4203D3434B1B689C4206D33D4BB0
:1059500040F2AF1240493D4805F0E2FD3B689C42F1
:105960006DD33C4B1A689846944268D214F8043CB4
:10597000A4F1080533B9334B4FF4E072374933488B
:1059800005F0CEFD0023364E04F8043C33689D42FA
:105990003B6838BF35609D4206D22A4B40F25D120B
:1059A00030492A4805F0BCFDD8F800309D4206D3A6
:1059B000244B4FF4AF722C49244805F0B1FD14F884
:1059C000043C33B11F4B40F25F1228491F4805F0D9
:1059D000A7FD34F8083CB3F5C86F06D9194B4FF44E
:1059E000B1722349194805F09BFD3B6834F8081C47
:1059F0005A18954211D0107978B9D8F8000082422F
:105A00000BD0306882425A5A24F8082C5A5AA5EB17
:105A1000030108BF35601A44518034F8062C9918E8
:105A20008D420CD0087950B93068854208BF31608A
:105A300034F8081C995234F8081C0B445A80BDE80D
:105A4000F08100BFADCF0008DCCF000887C9000897
:105A5000AC010020B0010020FDCF000814D00008E8
:105A6000A801002028D000083FD0000859D0000825
:105A700074D00008F8B503314FF6FC7504460D40AC
:105A80000B2D04D9B5F5C86F02D9002459E00C25B7
:105A90002D4E3268A24203D82C4B1B689C4206D381
:105AA0002B4B4FF4FA722B492B4805F039FD336824
:105AB0009C4246D3254A1268944242D2A4F108027D
:105AC00034F8080CD21AA0F1080192B2891A89B2EE
:105AD000A94219D21E4B40F2062220491E4805F069
