:020000040800F2
:1000000000000820A13D0008993C00089B3C000826
:100010009D3C00089F3C0008A13C00080000000037
:10002000000000000000000000000000A33C0008E9
:10003000A53C000800000000A73C0008A93C0008FF
:10004000F13D0008F13D0008F13D0008F13D0008D8
:10005000F13D0008F13D0008F13D0008F13D0008C8
:10006000F13D0008F13D0008F13D0008F13D0008B8
:10007000F13D0008F13D0008F13D0008F13D0008A8
:10008000F13D0008F13D0008F13D0008F13D000898
:10009000F13D0008F13D0008F13D0008F13D000888
:1000A000F13D0008F13D0008F13D0008F13D000878
:1000B000AD3C0008F13D0008F13D0008F13D0008AD
:1000C000F13D0008F13D0008F13D0008F13D000858
:1000D000F13D0008F13D0008F13D0008F13D000848
:1000E000F13D0008F13D0008F13D0008F13D000838
:1000F000F13D0008F13D0008F13D0008F13D000828
:10010000F13D0008F13D0008F13D0008F13D000817
:10011000F13D0008F13D0008F13D0008F13D000807
:10012000F13D0008B93C0008F13D0008F13D000830
:10013000F13D0008F13D0008F13D0008F13D0008E7
:10014000F13D0008F13D0008F13D0008F13D0008D7
:10015000F13D0008F13D0008F13D0008F13D0008C7
:10016000F13D0008F13D0008F13D0008F13D0008B7
:10017000F13D0008F13D0008C53C0008000000000A
:10018000F13D0008F13D0008F13D0008F13D000897
:10019000F13D0008F13D0008F13D0008F13D000887
:1001A000F13D0008F13D0008F13D0008F13D000877
:1001B000F13D0008F13D0008F13D0008F13D000867
:1001C000F13D0008F13D000800000000F13D00088D
:1001D000F13D0008F13D0008F13D0008F13D000847
:1001E000F13D0008F13D0008F13D0008F13D000837
:0801F000F13D0008F13D00089B
:1002000010B5054C237833B9044B13B10448AFF350
:1002100000800123237010BD7C000020000000003E
:10022000244D000808B5034B1BB103490348AFF345
:10023000008008BD0000000080000020244D000860
:1002400001F0FF01102A2BDB10F0070F08D010F887
:10025000013B013A8B422DD010F0070F42B3F6D18B
:10026000F0B441EA012141EA014122F007047FF0A4
:1002700000070023F0E80256083C85EA010586EAFB
:10028000010685FA47F5A3FA87F586FA47F6A5FA37
:1002900087F68EB9EED1F0BC01F0FF0102F0070243
:1002A00032B110F8013B013A83EA010313B1F8D1EE
:1002B0000020704701387047002D06BF35460338CF
:1002C000073815F0010F07D1013015F4807F02BF08
:1002D000013015F4C03F0130F0BC0138704700BF59
:1002E00053B94AB9002908BF00281CBF4FF0FF319D
:1002F0004FF0FF3000F07AB9ADF1080C6DE904CE93
:1003000000F006F8DDF804E0DDE9022304B07047F0
:100310002DE9F0478C460D460446089E002B51D12E
:100320008A4217466DD9B2FA82FEBEF1000F0BD099
:10033000CEF1200C01FA0EF520FA0CFC02FA0EF7B1
:100340004CEA050C00FA0EF44FEA174A250CBCFBE8
:10035000FAF81FFA87F90AFB18CC45EA0C4508FBA6
:1003600009F3AB420AD9ED1908F1FF3280F023817D
:10037000AB4240F22081A8F102083D44ED1AA4B23C
:10038000B5FBFAF00AFB105544EA054400FB09F9F5
:10039000A14509D9E41900F1FF3380F00A81A14594
:1003A00040F2078102383C44A4EB090440EA0840CB
:1003B0000021002E61D024FA0EF400233460736013
:1003C000BDE8F0878B4207D9002E54D0002186E883
:1003D00021000846BDE8F087B3FA83F1002940F018
:1003E0008E80AB4202D3824200F2FA80841A65EB1F
:1003F00003050120AC46002E3FD086E81010BDE872
:10040000F08712B90127B7FBF2F7B7FA87FEBEF102
:10041000000F34D1EB1B3A0C1FFA87FC0121B3FB10
:10042000F2F8250C02FB183345EA03450CFB08F3F0
:10043000AB4207D9ED1908F1FF3002D2AB4200F20E
:10044000D1808046ED1AA3B2B5FBF2F002FB105545
:1004500043EA05440CFB00FCA44507D9E41900F16C
:10046000FF3302D2A44500F2B8801846A4EB0C0476
:1004700040EA08409DE731463046BDE8F087CEF1BE
:10048000200405FA0EF307FA0EF720FA04F83A0CE6
:1004900025FA04F448EA0308B4FBF2F14FEA1845E0
:1004A00002FB11441FFA87FC45EA044501FB0CF3EB
:1004B000AB4200FA0EF409D9ED1901F1FF3080F0DA
:1004C0008A80AB4240F2878002393D44EB1A1FFA22
:1004D00088F5B3FBF2F002FB103345EA034500FB5D
:1004E0000CF3AB4207D9ED1900F1FF386FD2AB42E4
:1004F0006DD902383D44EB1A40EA01418FE7C1F162
:10050000200722FA07F88B4005FA01F448EA0303B2
:1005100020FA07FE4FEA134CFD404EEA040EB5FBED
:10052000FCF94FEA1E440CFB19551FFA83F844EA04
:10053000054509FB08F4AC4202FA01F200FA01FA9F
:1005400008D9ED1809F1FF3043D2AC4241D9A9F1E5
:1005500002091D442D1B1FFA8EFEB5FBFCF00CFB9F
:1005600010554EEA054400FB08F8A04507D9E418E9
:1005700000F1FF3529D2A04527D902381C4440EAB2
:100580000940A4EB0804A0FB02894C45C6464D4631
:1005900015D312D056B1BAEB0E0364EB050404FA7E
:1005A00007F7CB401F43CC40376074600021BDE8A3
:1005B000F0871846F8E69046E0E6C245EAD2B8EB86
:1005C000020E69EB03050138E4E72846D7E7404609
:1005D00091E78146BEE7014678E702383C4445E7AB
:1005E000084608E7A8F102083D442BE7704700BF22
:1005F00038B50E4B05460E4A18784FF47A73B3FBA4
:10060000F0F31068B0FBF3F000F09EF8044658B920
:100610000F2D09D8024629464FF0FF3000F04EF862
:10062000044B20461D6038BD012038BD000000206D
:10063000140000200400002008B5032000F02CF86E
:100640000020FFF7D5FF03F095F9002008BD00005A
:10065000034A044B11681B780B441360704700BFBA
:10066000AC00002000000020014B1868704700BF5C
:10067000AC00002038B50446FFF7F6FF0546631CC2
:100680001EBF044B1B78E418FFF7EEFF401B8442AB
:10069000FAD838BD00000020074A0002D36800F4F1
:1006A000E06023F4E0631B041B0C43F0BF6343F4DE
:1006B00000330343D360704700ED00E0194B30B5C1
:1006C000DC68C4F30224C4F10703251D042B28BFF2
:1006D0000423062D4FF001058CBF033C002405FACE
:1006E00003F3002803F1FF3301EA030101FA04F1E7
:1006F00005FA04F404F1FF3402EA040242EA0102BA
:100700004FEA021207DB00F16040D2B200F561400F
:1007100080F8002330BD00F00F00D2B2024B1A5413
:1007200030BD00BF00ED00E014ED00E0002808DB64
:100730004209012300F01F0003FA00F0014B43F8C7
:100740002200704700E100E00138B0F1807F0AD25A
:10075000064BF021064A5860002082F82310072239
:1007600098601A6070470120704700BF10E000E0F9
:1007700000ED00E010B5846BA36BA06CC3B10368FF
:100780001968A26B12F001020BD1090309D5DB68CD
:10079000E16B03EBC10100F00BFDA36B013BA36315
:1007A0000CE01A68120309D41B690122E16BF0E71F
:1007B00003681A68110311D5626CDA60A26B236CAE
:1007C0009A420AD12368DA6842F00102DA601B68B3
:1007D0009B0702D5012384F8353010BD1A68120337
:1007E000ECD4E16B626C02EB81021A61236CD6E7F8
:1007F00038B5044600283DD090F835300BB903F0E9
:10080000D1F822680223E56884F835301A4B116864
:100810000B406168136010296369106843EA0103A3
:1008200043EA0503256943EA0503A56843EA05038E
:10083000A56943EA0503256A43EA0503656A43EAB5
:100840000503A56A43EA0503E56A43EA0503256B48
:1008500043EA050343EA0003136001D1E3699361AE
:10086000D368002043F01E03D3600123E06484F8C2
:10087000353038BD012038BD07F0E0FFF7B504463C
:1008800090F83400164601284FF002002DD025685C
:100890004FF0010E84F83500B3F5803F286884F8E6
:1008A00034E040F48040DFF88CC02860286820F0F5
:1008B00002002860286841EA0001A06C29601C49F8
:1008C000C0F83CC0C1644FF000010165A163216420
:1008D0000DD205F1280100F075F922680020136897
:1008E00043F00103136084F8340003B0F0BDC0F896
:1008F00044C0C4F838E06264E363E36BB3F5803F5F
:100900000FD2A36B05F12801023BA363A36B236401
:10091000E36BE26B06EB83030092324600F05CFA75
:10092000DBE7E36B5B08E363A36B5B00A363E4E7D4
:10093000DB0900087507000890F834200346012AF7
:100940002CD00121164A80F8341090F83510126826
:10095000022904D00020002283F8342070474FF48D
:10096000FA51B2FBF1F14FF47A724A43052180F853
:1009700035100168086820F00100086012F1FF32AC
:1009800008D2DA6C032042F02002DA64012283F8F4
:100990003520E0E70868C007F0D4DBE702207047A5
:1009A0001400002090F83430012B13D0012380F87C
:1009B000343090F83530052B07D10223026880F8D7
:1009C0003530136843F001031360002380F834309E
:1009D00018467047022070477047806B08B5836CDB
:1009E0005B6D022B06D0012380F83530C36C43F0D9
:1009F0004003C364FFF7F0FF08BD70477047000075
:100A000038B5036804461D6969070CD504225A618C
:100A1000C36C43F00203C36480F835201C4B806C28
:100A2000036500F00CF9AA070ED523680222A06C1A
:100A30005A61E36C43F00103E364042384F8353026
:100A4000134B036500F0FBF8EB0605D52368102275
:100A500020465A61FFF7D1FF280705D523680822F1
:100A600020465A61FFF7CAFFE90710D523681A68C4
:100A7000920703D5DA6822F01E02DA60DA682046AF
:100A800022F00102DA6001225A6102F0C7FA38BD91
:100A9000DB09000890F83500704700000368182152
:100AA000DAB223F47F73103A23F00303B2FBF1F2BE
:100AB0000449032A895C88BF0433C1658365806D5E
:100AC000704700BF3C4D000870B50446FFF7CCFDF1
:100AD0000546002C71D00023226884F834300223AC
:100AE00084F83530136823F00103136021680B6824
:100AF000D8073CD40B68324D62681D40A368A069DA
:100B00001343E26813432269134362691343E269A2
:100B100003431343226A1343626A042A43EA050328
:100B200001BF266BE56A35432B43042A0B604B69F2
:100B300023F0070343EA02030BD1A26AE56A1343D9
:100B40003DB1F8B9012A2DD001D3022A01D1EA0121
:100B50002BD44B612046FFF7A1FFE26D3F2393406A
:100B6000836000200123606584F8353070BDFFF795
:100B70007BFD401B0528B9D920230320636584F839
:100B8000350070BDB0F5005F13D1032AE1D801A094
:100B900050F822F0AB0B00084F0B0008AB0B00081D
:100BA000A50B0008B5F1C07FD3D1402301206365B8
:100BB000E5E7022AF9D9032AC8E7012070BD00BF82
:100BC0003F8010E070B590F83440012C35D00124FE
:100BD000866D002580F8344090F83540012C4FF0A8
:100BE000020428D180F8354004684565256825F45D
:100BF0008025256063608368402B19D1A260E16085
:100C0000C26D3F239340B360236843F01603236013
:100C1000636943F080036361036C1BB1236843F095
:100C2000080323602368002043F00103236070BDA4
:100C3000A160E260E4E780F83450022070BD90F8D3
:100C40003530022B03D080234365012070470268B2
:100C5000052380F835300020136823F0010313606A
:100C6000704700000023F7B501930822594B044652
:100C7000856D1F68C36D2E689A4016420CD00168BE
:100C80000868400708D5086820F004000860AA60DA
:100C9000626D42F00102626501229A40164208D05C
:100CA00021684969090604D5AA60626D42F0020212
:100CB000626504229A40164208D0216809688807B4
:100CC00004D5AA60626D42F00402626510229A4067
:100CD000164210D02368196809070CD5AA601A6853
:100CE000500335D51B68190301D4236C00E0A36CB5
:100CF0000BB120469847E16D20228A40164238D039
:100D000023681868C60634D5AA6094F83520052AE9
:100D10001A6825D122F016021A605A6922F0800260
:100D20005A61226C0AB9A26C1AB11A6822F0080240
:100D30001A603F238B40AB60002384F834300123DA
:100D400084F83530236D0BB12046984703B0F0BDD1
:100D50001A68D205C9D41A6822F008021A60C4E7DA
:100D6000500328D51B68190332D4636C0BB120469D
:100D70009847636D002BE9D0636DDA0719D5052319
:100D8000226884F83530136823F0010313604FF4B0
:100D90001653B7FBF3F7019B01339F42019302D334
:100DA0001368DB07F7D4002384F83430012384F878
:100DB0003530E36CC7E71A6812F4807208D11968FD
:100DC00021F010011960012384F8342084F83530B3
:100DD000E36BCBE71400002070B58668802E04D149
:100DE0004FF480734365012070BD90F83440012CAE
:100DF00000F0D4810124002580F8344090F835407B
:100E0000012C4FF0020440F0C78180F83540402E9D
:100E100004684565256845F4802525602361049BA9
:100E200063603FD1A260E160B04B9C4242D918336D
:100E30009C423AD0AE4A944239D01832944214BF00
:100E40004FF000624FF40012AA499C42CA6040F081
:100E5000B38010229C42CA6040F0E6800822A54977
:100E60009C42CA6040F0188104229C42CA6040F053
:100E70005F8101239F4AD360236843F016032360F8
:100E8000636943F080036361036C0BB9836C1BB12E
:100E9000236843F0080323602368002043F0010324
:100EA000236070BDA160E260BEE72022CCE74FF472
:100EB0000062C9E7904B9C422AD903F556739C42C5
:100EC00021D08E4A944220D01832944214BF4FF061
:100ED00000624FF4001287499C428A607AD1102246
:100EE0009C428A6040F0AE80082282499C428A601F
:100EF00040F0E08004229C428A6040F02681012379
:100F00007C4A9360B8E72022E5E74FF40062E2E70D
:100F10007B4B9C4228D918339C4220D0794A94427A
:100F20001FD01832944214BF4FF000624FF40012E9
:100F300075499C42CA605BD110229C42CA6040F055
:100F40008F80082270499C42CA6040F0C180042210
:100F50009C42CA6040F0068101236B4A8BE7202245
:100F6000E6E74FF40062E3E7684B9C421FD0684A13
:100F700094421ED01832944214BF4FF000624FF4D6
:100F8000001261499C428A6040D110229C428A60D2
:100F900074D108225C499C428A6040F0BB800422E4
:100FA0009C428A6040F0EB800123574AA9E7202247
:100FB000E7E74FF40062E4E74D4A944207D0183265
:100FC000944214BF4FF080624FF4801242E74FF416
:100FD00080623FE7494A944207D01832944214BFD6
:100FE0004FF080624FF480127AE74FF4806277E727
:100FF000444A944207D01832944214BF4FF08062A2
:101000004FF4801299E74FF4806296E7404A944289
:1010100007D01832944214BF4FF080624FF4801210
:10102000B4E74FF48062B1E7314A944207D01832F6
:10103000944214BF4FF000724FF400220FE74FF4B8
:1010400000720CE72D4A944207D01832944214BF24
:101050004FF000724FF4002247E74FF4007244E76C
:10106000284A944207D01832944214BF4FF00072BD
:101070004FF4002266E74FF4007263E7244A94427B
:1010800007D01832944214BF4FF000724FF4002280
:1010900080E74FF400727DE7154A944207D018327A
:1010A000944214BF4FF080724FF48022DDE64FF47B
:1010B0008072DAE6114A944207D01832944214BF83
:1010C0004FF080724FF4802215E74FF4807212E7E0
:1010D0000C4A944207D01832944214BF4FF08072E9
:1010E0004FF4802234E74FF4807231E758640240B5
:1010F0008864024000640240B860024028640240F4
:101100005860024088600240006002401060024067
:1011100028600240224A944207D01832944214BFF9
:101120004FF080724FF480223AE74FF4807237E735
:101130001C4B9C4207D018339C4214BF4FF48003D1
:101140004FF4803396E6402394E6174B9C4207D039
:1011500018339C4214BF4FF480034FF48033CFE622
:101160004023CDE6114B9C4207D018339C4214BF5C
:101170004FF480034FF48033EFE64023EDE6084B55
:101180009C4207D018339C4214BF4FF480034FF4A5
:1011900080330AE7402308E780F83450022070BD0E
:1011A000286002408864024028640240886002404F
:1011B000036812B9D960002070471961FBE700008D
:1011C0002DE9F04F0B6885B0DFF8C0810193002353
:1011D0006C4ADFF8BC914FF0010E019C0EFA03FE41
:1011E0000EEA0406B64540F0B3804C6824F01007C0
:1011F000022F16D14FEAD30A03F0070B4FF00F0C62
:1012000000EB8A0A4FEA8B0BDAF820500CFA0BFC41
:1012100025EA0C0C0D6905FA0BF545EA0C05CAF830
:1012200020504FEA430A0325D0F800B004F0030C25
:1012300005FA0AF5013F0CFA0AFCED43012F0BEA0F
:10124000050B4CEA0B0CC0F800C011D8876807EA00
:10125000050BCF6807FA0AFC4CEA0B078760476862
:1012600027EA0E0EC4F300179F4047EA0E074760B7
:10127000C7683D408F6807FA0AF73D43C560E5003F
:1012800066D5D8F8445023F0030703F0030E4FF05F
:101290000F0C45F4804507F180474FEA8E0EC8F8E1
:1012A000445007F59C37D8F8445005F48045039521
:1012B000039D0CFA0EF5D7F808A02AEA050C324D6A
:1012C000A8424CD005F58065A8424AD005F5806556
:1012D000A84248D005F58065A84246D005F580654E
:1012E000A84244D0484544D005F50065A84242D004
:1012F00005F58065A84240D005F58065A8423ED03E
:1013000005F58065A84214BF0A25092505FA0EF5E2
:1013100014F4803F45EA0C05BD606FEA06071568C6
:101320000CBF3D40354314F4003F156055680CBFB9
:101330003D40354314F4801F556095680CBF3D4017
:101340003543A4029560D56854BF3D403543D56010
:101350000133102B7FF43FAF05B0BDE8F08F0025BF
:10136000D4E70125D2E70225D0E70325CEE70425FF
:10137000CCE70525CAE70625C8E70725C6E70825FF
:10138000C4E700BF003C01400000024000380240BA
:10139000001402400369194214BF01200020704765
:1013A0000AB1816170470904FBE7436931EA03032D
:1013B00008BF09048161704710B5044600284AD06F
:1013C00090F8413003F0FF021BB980F8402002F092
:1013D000A3FB2423E16884F84130012923681A68BB
:1013E00022F001021A60626822F070621A619A6843
:1013F00022F400429A60A26824D142F400429A602A
:101400005A680020616942F0007242F400425A605A
:10141000DA6822F40042DA6022690A43A16942EAEA
:101420000122216ADA60E2690A431A601A6842F00E
:1014300001021A602023606484F84130206384F83C
:10144000420010BD42F4044202299A60D8D14FF400
:1014500000625A60D4E7012010BD90F84120D2B25A
:10146000202A10B51DD190F84030012B19D024232B
:1014700080F8413003681C6824F001041C601C687B
:1014800024F480541C601C6821431960196841F0E1
:1014900001011960002380F8412080F8403018468F
:1014A00010BD022010BD10B590F84140E4B2202CD0
:1014B0001CD190F84030012B18D0242380F8413003
:1014C00003681A6822F001021A601A6822F4706236
:1014D00042EA012119601A6842F001021A600023F1
:1014E00080F8414080F84030184610BD022010BD01
:1014F000194B37B51A6C194C42F080521A641B6CA8
:1015000003F080530193019B236843F480332360ED
:10151000FFF7AAF805466368DA030CD5236843F49D
:1015200000332360FFF7A0F80C4C054663689B036B
:101530000AD5002006E0FFF797F8401BB0F57A7F48
:10154000E9D9032003B030BDFFF78EF8401BB0F59A
:101550007A7FEBD9F5E700BF003802400070004009
:101560002DE9F341044618B9012002B0BDE8F0812D
:101570000368D80710D4236899075ED42368190735
:1015800000F1A38023685A0700F1C480A269002AF1
:1015900040F02E810020E8E7934B9A6802F00C029D
:1015A000042A07D09A6802F00C02082A0AD15B6864
:1015B0005A0207D58C4B1B689B03DCD56368002B54
:1015C000D9D1D1E76368884DB3F5803F11D12B683D
:1015D00043F480332B60FFF747F8834D06462B68B2
:1015E0009F03C8D4FFF740F8801B6428F7D9032075
:1015F000BBE79BB92B6823F480332B602B6823F463
:1016000080232B60FFF730F806462B689803B2D58D
:10161000FFF72AF8801B6428F7D9E8E7B3F5A02F75
:101620002B6803D143F480232B60D0E723F480336D
:101630002B602B6823F48023CCE76B4B9A6812F065
:101640000C0F07D09A6802F00C02082A11D15B68CF
:1016500059020ED4644B1A68920702D5E268012A37
:1016600082D11A68216922F0F80242EAC1021A60A6
:1016700084E7E3685C4DBBB12B6843F001032B604A
:10168000FEF7F2FF06462B689F0707D52B682269F5
:1016900023F0F80343EAC2032B606FE7FEF7E4FF91
:1016A000801B0228EFD9A2E72B6823F001032B60EF
:1016B000FEF7DAFF06462B6898077FF55FAFFEF767
:1016C000D3FF801B0228F6D991E76369464D83B1A9
:1016D0006B6F43F001036B67FEF7C6FF06466B6F47
:1016E0009B073FF54FAFFEF7BFFF801B0228F6D9DF
:1016F0007DE76B6F23F001036B67FEF7B5FF0646CE
:101700006B6F9F077FF53EAFFEF7AEFF801B022891
:10171000F6D96CE7344B1A6CD00027D41A6C01262A
:1017200042F080521A641B6C03F080530193019BBA
:101730002E4D2B68D9051BD5A3682B4D012B27D126
:101740002B6F43F001032B6741F28835FEF78CFFC6
:10175000254F80463B6F9B073FD5002E3FF416AFC9
:10176000214A136C23F0805313640FE70026DFE750
:101770002B6843F480732B60FEF776FF07462B68D7
:10178000DA05D9D4FEF770FFC01B6428F7D92EE71D
:10179000ABB92B6F41F2883823F001032B672B6F15
:1017A00023F004032B67FEF75FFF07462B6F9807B4
:1017B000D3D5FEF759FFC01B4045F7D917E7052BD6
:1017C0002B6F03D143F004032B67B9E723F0010328
:1017D0002B672B6F23F00403B5E7FEF745FFA0EB63
:1017E0000800A842B6D902E7003802400070004065
:1017F000244DAB6803F00C03082B3FF4B5AE2B6807
:10180000022A23F080732B602FD1FEF72DFF0646AE
:101810002B68990123D4226AE3691343626A43EA7D
:101820008213E26A43EA0263226B43EA0273A26A0A
:10183000144C5208013A43EA02436B602B6843F0B0
:1018400080732B60FEF710FF054623689A013FF571
:10185000A1AEFEF709FF401B0228F6D9C7E6FEF746
:1018600003FF801B0228D3D9C1E6FEF7FDFE044624
:101870002B689B017FF58EAEFEF7F6FE001B02285B
:10188000F6D9B4E600380240104908B58B6803F079
:101890000C03082B18D14A684B68496802F03F02D4
:1018A00013F480030A48C1F3881118BF0023A1FB79
:1018B0000001FEF715FD054B5B68C3F301430133DF
:1018C0005B00B0FBF3F008BD014808BD00380240E2
:1018D0000024F4002DE9F0410D46044610B9012022
:1018E000BDE8F081464A136803F00F038B4228D30A
:1018F00021688F0730D4C80743D4414A136803F0E6
:101900000F039D4267D32268510770D4130707D590
:101910003C4A2169936823F4604343EAC10393601E
:10192000FFF7B2FF374B384A9B68C3F30313D35C0E
:10193000D840364B18600020FEF75AFE0020BDE864
:10194000F081136823F00F030B431360136803F057
:101950000F039942C3D1CBE711F0040F294B03D0F9
:101960009A6842F4E0529A600E0703D59A6842F4EE
:1019700060429A609A68A06822F0F00202439A607E
:10198000B9E761681F4B01291A681CD112F4003FA6
:10199000A5D09A6841F288381A4E22F003020A4311
:1019A0009A60FEF761FE0746B368626803F00C03B5
:1019B000B3EB820FA1D0FEF757FEC01B4045F3D911
:1019C0000320BDE8F081022902D112F0007FDFE799
:1019D00012F0020FDCE7136823F00F032B431360B0
:1019E000136803F00F039D427FF479AF8BE705493D
:1019F000E0688B6823F4E05303438B6086E700BF05
:101A0000003C024000380240E94E0008140000206B
:101A1000044B054A9B68C3F38223D35C034A1068D6
:101A2000D840704700380240F94E000814000020EA
:101A3000044B054A9B68C3F34233D35C034A1068E6
:101A4000D840704700380240F94E000814000020CA
:101A50002DE9F7430268044612F001060BD0BA4B99
:101A6000996821F400019960466B99683143B6FA90
:101A700086F67609996012F4002512D0B249E56B1A
:101A8000D1F88C30B5F5801F23F4401308BF012630
:101A900043EA050316BFB5FA85F500256D09C1F8BF
:101AA0008C30D70210D5A848216CD0F88C30B1F515
:101AB000800F23F4400343EA0103C0F88C3000F0A8
:101AC000A981002908BF012512F0807F18BF0126D7
:101AD000900631D59C4B9D4F1A6C42F080521A648F
:101AE0001B6C03F080530193019B3B6843F48073AC
:101AF0003B60FEF7B9FD80463B68D90540F18C811B
:101B0000914F3B6F13F4407340F09181236B03F4CA
:101B10004072B2F5407F8C4A40F0AF81916823F06B
:101B2000704021F4F81120F4407001439160C3F338
:101B30000B03116F0B4313672368DF060CD5824A32
:101B4000D2F88C1021F08071C2F88C10D2F88C1071
:101B5000A06B0143C2F88C10580408D57A49606E16
:101B6000D1F8902022F440320243C1F890201904A9
:101B700008D57549A06ED1F8902022F44022024386
:101B8000C1F89020DA0308D56F49E06ED1F89020B3
:101B900022F440120243C1F890209F0308D56A49FD
:101BA000206FD1F8902022F440020243C1F8902027
:101BB000580608D56449606CD1F8902022F00302E1
:101BC0000243C1F89020190608D55F49A06CD1F8EE
:101BD000902022F00C020243C1F89020DA0508D5CB
:101BE0005949E06CD1F8902022F030020243C1F84C
:101BF00090209F0508D55449206DD1F8902022F0FF
:101C0000C0020243C1F89020580508D54E49606DC6
:101C1000D1F8902022F440720243C1F890201905B7
:101C200008D54949A06DD1F8902022F440620243C2
:101C3000C1F89020DA0408D54349E06DD1F890202E
:101C400022F440520243C1F890209F0408D53E4937
:101C5000206ED1F8902022F440420243C1F8902037
:101C6000580208D53849A06FD1F8902022F0806240
:101C70000243C1F8902099020CD53348E16FD0F8A7
:101C80009020B1F1006F22F0006208BF01250A43E5
:101C9000C0F8902013F0080F18BF01255A0308D58B
:101CA0002949606FD1F8902022F040720243C1F8B8
:101CB00090201F0209D52449D4F88000D1F8902043
:101CC00022F080520243C1F89020580109D51E49E4
:101CD000D4F88400D1F8902022F000520243C1F8D9
:101CE0009020190109D51849D4F88800D1F88C2022
:101CF00022F000720243C1F88C20DA0009D51249A3
:101D0000D4F88C00D1F88C2022F080620243C1F814
:101D10008C20012E00F0B580B3F1007F00F0B1807F
:101D2000012D75D1084D2B6823F080532B60FEF7F1
:101D30009BFC06462B689F0000F1278121680E035B
:101D400006D5E36B43B103E0003802400070004069
:101D5000CD021DD5236CDBB9934AD2F88830D2F876
:101D6000880003F4403300F0E0400343606943EA35
:101D70008013A06943EA0063C2F88830D2F88C303F
:101D8000A06A23F4F853013843EA0023C2F88C30E8
:101D9000880215D5E36FB3F1006F11D1824AD2F8F2
:101DA0008830D2F8880003F0706300F0E04003430D
:101DB000606943EA8013206A43EA0043C2F888302E
:101DC0000A0719D57849D1F88820D1F8883002F06F
:101DD000706203F440331343626943EA8213E26999
:101DE00043EA0273C1F88830D1F88C30E26A23F4F8
:101DF00040331343C1F88C306B4C236843F080535D
:101E00002360FEF731FC054623689B0040F1C48047
:101E1000002009E0012657E6FEF726FCA0EB0800AB
:101E200064287FF669AE032003B0BDE8F083226B1F
:101E300002F4407293423FF469AE3B6F3A6F23F471
:101E4000407342F480323A673A6F22F480323A6744
:101E50003B673B6FDA077FF559AEFEF705FC41F2B1
:101E6000883980463B6F9B073FF550AEFEF7FCFB81
:101E7000A0EB08004845F5D9D5E7916821F4F811A1
:101E800054E6494E336823F080633360FEF7ECFB81
:101E9000074633681B0172D42268D70712D5636BDB
:101EA00083B9D6F88430D6F8841003F4403301F0B7
:101EB00070610B43616843EA8113A16843EA0173CF
:101EC000C6F88430160303D5E36BB3F5801F05D045
:101ED000D0021ED5236CB3F5800F1AD13249D1F848
:101EE0008430D1F8840003F4403300F0E040034331
:101EF000606843EA8013E06843EA0063C1F8843015
:101F0000D1F88C00636A20F01F00013B0343C1F845
:101F10008C30D10111D52449D1F88430D1F8840016
:101F200003F0706300F0E0400343606843EA80130D
:101F3000206943EA0043C1F8843092010DD523693A
:101F400062681B0443EA8213E26843EA0263A26800
:101F500043EA0273144AC2F88430134E336843F0E4
:101F600080633360FEF780FB074633681B013FF553
:101F7000D7AEFEF779FBC01B6428F6D953E7FEF70E
:101F800073FBC01B642884D94DE7FEF76DFB801BF3
:101F900064287FF6CFAE46E7FEF766FB401B642859
:101FA0007FF632AF3FE700BF00380240036A23F0FC
:101FB000010370B50362036A4268846923F0020377
:101FC0000D6824F4803424F073042C438D682B4373
:101FD0000E4DA84202D00E4EB04211D123F008039C
:101FE000CE68A84243EA060323F0040302D0084D5A
:101FF000A84205D14D6922F440728E6935432A43C7
:1020000042604A6884614263036270BD000001401F
:1020100000040140036A23F4807370B50362036A0D
:102020004268C46923F400730D6824F4803424F0FA
:1020300073042C438D6843EA0523114DA84203D055
:1020400005F58065A84214D1CD6823F4006343EA06
:1020500005230B4DA84223F4806303D005F580656A
:10206000A84206D14D6922F440528E69354342EAB6
:10207000051242604A68C461C263036270BD00BF5A
:1020800000000140036A23F4805330B50362026A02
:102090004468C36922F400520D6823F0807323F46E
:1020A000E64343EA05238D6842EA0532084DA8421B
:1020B00003D005F58065A84204D124F480444D691D
:1020C00044EA85144460C3614B680364026230BD16
:1020D00000000140036A23F4803330B50362026AD2
:1020E0004468436D22F400320D6823F4803323F0FA
:1020F00070032B438D6842EA0542094DA84203D084
:1021000005F58065A84204D124F480344D6944EA81
:102110000524446043654B688365026230BD00BF9F
:1021200000000140036A23F4801330B50362026AA1
:102130004468436D22F400120D6823F0807323F489
:10214000E04343EA05238D6842EA0552084DA84260
:1021500003D005F58065A84204D124F480244D699C
:1021600044EA8524446043654B68C365026230BD20
:10217000000001400368DA6842F00102DA60074AB1
:1021800099680A40062A06D0B2F5803F03D01A6843
:1021900042F001021A600020704700BF07000100F2
:1021A0007047704770477047704703681A69910716
:1021B00010B504460FD5DA6892070CD56FF002020D
:1021C0001A6101229B690277990700F08580FFF769
:1021D000E9FF0023237723681A69520710D5DA68CC
:1021E00050070DD56FF0040220461A6102229B6948
:1021F000227713F4407F75D0FFF7D4FF00232377B5
:1022000023681A6911070FD5DA6812070CD56FF029
:10221000080220461A610422DB6922779B0767D0F7
:10222000FFF7C0FF0023237723681A69D00610D573
:10223000DA68D1060DD56FF0100220461A61082227
:10224000DB69227713F4407F58D0FFF7ABFF002300
:10225000237723681A69D20708D5DA68D00705D52D
:102260006FF0010220461A6100F0ECFE23681A6943
:10227000110608D5DA68120605D56FF080022046EF
:102280001A6100F09AFA23681A69D00508D5DA684D
:10229000110605D56FF4807220461A6100F08EFA9F
:1022A00023681A69520608D5DA68500605D56FF01A
:1022B000400220461A61FFF777FF23681A699106EA
:1022C00022D5DA6892061FD56FF0200220461A61E7
:1022D000BDE8104000F070BAFFF763FF2046FFF73B
:1022E00062FF76E7FFF75DFF2046FFF75CFF85E7BB
:1022F000FFF757FF2046FFF756FF93E7FFF751FF21
:102300002046FFF750FFA2E710BD0000304A0368E7
:10231000904212D0B0F1804F0FD0A2F57C42904293
:102320000BD002F58062904207D002F580629042A5
:1023300003D002F57842904219D14A6823F0700325
:102340001343234A904229D0B0F1804F26D0A2F502
:102350007C42904222D002F5806290421ED002F56B
:10236000806290421AD002F57842904216D0194A03
:10237000904213D002F5806290420FD002F5806245
:1023800090420BD0A2F59832904207D002F58062BD
:10239000904203D002F58062904203D123F440734F
:1023A000CA6813434A6923F08003134303608B68B0
:1023B000C3620B688362064B984203D003F58063C7
:1023C000984201D10B69036301234361704700BF49
:1023D000000001400040014010B50446A0B190F853
:1023E0003D3003F0FF021BB980F83C2001F0CAFB2E
:1023F00002232068211D84F83D30FFF787FF012369
:10240000002084F83D3010BD012010BD10B50446F9
:10241000A0B190F83D3003F0FF021BB980F83C20DA
:10242000FFF7BEFE02232068211D84F83D30FFF730
:102430006DFF0123002084F83D3010BD012010BD48
:10244000036A23F0100370B50362036A426884696B
:1024500023F020030D6824F0807424F4E64444EA59
:1024600005248D6843EA0513104DA84203D005F5F5
:102470008065A84214D1CD6823F0800343EA051398
:102480000A4DA84223F0400303D005F58065A84219
:1024900006D14D6922F440628E69354342EA8502D5
:1024A00042604A6884618263036270BD000001403B
:1024B00038B590F83C3004460220012B10D001239F
:1024C000082A84F83D0084F83C3043D009D8FAB19A
:1024D000042A2ED00123002084F83D3084F83C00EB
:1024E00038BD102A47D0142A56D00C2AF2D12068C1
:1024F000FFF7C8FD23680969DA6942F40062DA610E
:10250000DA6922F48062DA61DA6942EA012230E0B3
:102510002068FFF74BFD236809699A6942F00802B9
:102520009A619A6922F004029A619A690A439A614F
:10253000D0E72068FFF784FF236809699A6942F4AD
:1025400000629A619A6922F480629A619A6942EA09
:102550000122ECE72068FFF75DFD23680969DA696D
:1025600042F00802DA61DA6922F00402DA61DA691B
:102570000A43DA61AEE72068FFF7ACFD236809691A
:102580005A6D42F008025A655A6D22F004025A65EB
:102590005A6D0A435A659DE72068FFF7C3FD23681B
:1025A00009695A6D42F400625A655A6D22F48062DC
:1025B0005A655A6D42EA0122ECE710B50A43846875
:1025C00042EA032324F47F442343836010BD0000C8
:1025D00090F83C30012B70B504464FF0020017D044
:1025E00084F83D000123206884F83C308268414B28
:1025F000134083600B68402B65D015D8102B0CD08E
:1026000007D853B10123002084F83D3084F83C0002
:1026100070BD202B01D0302BF4D1826843F007032A
:1026200022F0700213431AE0602B34D019D8502BDB
:10263000E8D14A68CE68016A056A21F00A0125F0EE
:1026400001050A430562836923F0F00343EA061398
:1026500083610262836823F0700343F05703836051
:10266000D0E7702B0CD0B3F5005FCBD1CB684A68B4
:102670008968FFF7A2FF2268936843F4804308E06B
:10268000CB684A688968FFF798FF2268936843F02F
:1026900077039360B6E74D68CE68016A21F01001B8
:1026A00001628269036A22F4704223F0A00342EAC5
:1026B000063243EA051382610362836823F07003E4
:1026C00043F06703CBE74A68CE68016A056A21F0E8
:1026D0000A0125F001050A430562836923F0F0032E
:1026E00043EA061383610262836823F0700343F0B8
:1026F0004703B4E78800FEFF01F01F01036A10B52D
:1027000001248A408C4023EA04030362036A1A43CB
:10271000026210BD10B5044601220068FFF7ECFF0D
:1027200023680D4A934211D002F5806293420DD086
:1027300099680A4A0A40062A06D0B2F5803F03D0BB
:102740001A6842F001021A60002010BD5A6C42F46F
:1027500000425A64ECE700BF00000140070001009E
:1027600090F83C30012B4FF0020330B51FD00268C7
:10277000104D80F83D30AA425368946803D005F5A7
:102780008065AA4203D123F470034D682B430D6882
:1027900023F07003896824F080042B4321435360A5
:1027A0000123916080F83D30002380F83C301846CA
:1027B00030BD00BF00000140704770477047000007
:1027C00038B5C26904460368816800691D68014321
:1027D00060690143904811432840256A0143E0683D
:1027E0001960596821F4405101435960A169986802
:1027F000294320F430600143996088498B4217D106
:10280000874B8849D3F8903003F00303B2F5004FAB
:10281000CB5C29D1082B00F29D80DFE813F08C00FF
:10282000E800EE009B00FA009B009B009B007600F6
:102830007D498B4206D17A4B7C49D3F8903003F026
:102840000C03E3E77A498B421DD1754BD3F89030E6
:1028500003F03003102B00F0D9800ED8002B67D086
:10286000B2F5004F76D01023082B73D8DFE803F0C1
:10287000999FA272B4727272B700202B00F0BA80D6
:10288000302B3FD0ECE76B498B420DD1644BD3F832
:10289000903003F0C003402B00F0B880DED9802BCD
:1028A00000F0A880C02BECE763498B4210D15C4B51
:1028B000D3F8903003F44073B3F5807F00F0A68026
:1028C000CCD9B3F5007F00F09580B3F5407FD8E711
:1028D0005A498B421ED1524BD3F8903003F44063D7
:1028E000B3F5806F00F0928006D8002B7CD0B2F553
:1028F000004F2FD110238DE7B3F5006F7AD0B3F5D9
:10290000406FF4D1B2F5004F69D16368580800F503
:10291000803078E04A498B4224D1414BD3F8903043
:1029200003F44053B3F5805F70D015D8002BDED18F
:10293000B2F5004F35D1FFF76BF86268530803EB2F
:102940004000B0FBF2F080B24FF6EF73A0F110023E
:102950009A421AD9012020E0B3F5005F4AD0B3F5BE
:10296000405FCEE737498B42F4D12D4BD3F89030FE
:1029700003F44043B3F5804F48D07FF66FAFB3F513
:10298000004F37D0B3F5404F7BE720F00F03C0F383
:10299000420022681843D06000200023236663664B
:1029A00038BDFFF735F8636800EB530008E0FFF728
:1029B0003FF8F8E76368580800F5740000F5105018
:1029C000B0FBF3F080B24FF6EF73A0F110029A4221
:1029D000C0D82368D860DFE7FEF756FFE3E76368F7
:1029E000580800F50040EBE7B2F5004FDFD1FFF7E4
:1029F0001FF8A2E7B2F5004FDCD16368580800F178
:102A0000F47000F59040B0FBF3F09CE7B2F5004F96
:102A1000E2D1FEF739FF90E7F369FFEF00100140C4
:102A200000380240444D000800440040484D000872
:102A300000480040004C004000500040001401409D
:102A400000780040007C0040436ADA0710B506D5E4
:102A50000168846A4A6822F4003222434A609C0773
:102A600006D50168C46A4A6822F4803222434A606B
:102A7000590706D50168046B4A6822F48022224374
:102A80004A601A0706D50168446B4A6822F400427E
:102A900022434A60DC0606D50168846B8A6822F40A
:102AA000805222438A60990606D50168C46B8A6801
:102AB00022F4005222438A605A0610D50168046C41
:102AC0004A68B4F5801F22F4801242EA04024A6088
:102AD00005D14A68446C22F4C00222434A601B06B6
:102AE00006D50268816C536823F400230B435360BE
:102AF00010BD2DE9F041069D04460F461646984646
:102B00002168CA6937EA02030CBF01220022B242DF
:102B100002D00020BDE8F0816B1CF2D0FDF7A4FDCF
:102B2000A0EB0800854201D3002DE9D123680320E2
:102B30001A6822F4D0721A609A6822F001029A6030
:102B400020236367A367002384F87030BDE8F08119
:102B50002DE9F7439846436F04460E46202B9146D5
:102B60004BD1002947D0002A45D090F87030012B76
:102B700043D00123002580F870302123C5674367C7
:102B8000FDF772FDA3680746A4F85090B3F5805F87
:102B9000A4F8529003D123690BB935461E46B4F808
:102BA00052203B46CDF8008092B24AB940212046DF
:102BB000FFF79FFF50B9202384F87000636706E099
:102BC000002280212046FFF794FF18B1032003B0B4
:102BD000BDE8F08322685EB935F8023BC3F3080311
:102BE0009362B4F85230013B9BB2A4F85230D6E75E
:102BF00016F8013BF4E70120E9E70220E7E737B5E3
:102C000000250446C567FDF72FFD226803461268BC
:102C1000120707D420230020636784F87000A3679D
:102C200003B030BD6FF07E424FF400112046009299
:102C30002A46FFF75EFF0028ECD00320F0E710B52E
:102C4000044640B3436F1BB980F8703000F0EEFFCC
:102C50002268242320466367136823F0010313606E
:102C6000FFF7AEFD012816D0636A13B12046FFF7C7
:102C7000EBFE236820465A6822F490425A609A6814
:102C800022F02A029A601A6842F00102BDE8104060
:102C90001A60FFF7B4BF012010BD00007FB51422F9
:102CA000002101A801F0DAF84FF4107301A90548DA
:102CB00001930123029302230493FEF781FA07B0E4
:102CC0005DF804FB000402407FB51422002101A836
:102CD00001F0C4F84FF4007301A9054801930123E2
:102CE000029302230493FEF76BFA07B05DF804FB2E
:102CF000000402407FB51422002101A801F0AEF8C3
:102D00004FF4007301A903480193FEF759FA07B085
:102D10005DF804FB0004024010B5144C01224FF48E
:102D200000712046FEF73CFB4FF4FA7000F0AAF861
:102D3000012240212046FEF733FB4FF4FA7000F0E9
:102D4000A1F800224FF400712046FEF729FB4FF452
:102D5000FA7000F097F8204600224021FEF720FB91
:102D60004FF4FA70BDE8104000F08CB80004024047
:102D700010B5104C00224FF400712046FEF710FBF6
:102D80004FF4FA7000F07EF8012240212046FEF751
:102D900007FB4FF4FA7000F075F8204601224FF45B
:102DA0000071FEF7FDFA4FF4FA70BDE8104000F034
:102DB00069B800BF0004024070B506460024234DE8
:102DC00006FA04F24FF400712846013412F0800232
:102DD00018BF0122FEF7E4FA0A2000F053F801229E
:102DE00040211A48FEF7DCFA0A2000F04BF80022D6
:102DF00040211648FEF7D4FA0A2000F043F8082CC8
:102E0000DED10A2000F03EF8FFF774FF0A2000F040
:102E100039F8012240210D48FEF7C2FA0A2000F0DD
:102E200031F84FF400710948FEF7B4FA002240214E
:102E300004460648FEF7B4FA0A2000F023F8FFF72C
:102E400043FF14F1FF3018BF012070BD00040240A1
:102E50000949CA6812F080720CD1CB6843F08073C4
:102E6000CB60064B0649C3F8B01F5A601A6842F09F
:102E700001021A60704700BFF0ED00E0001000E0B2
:102E800055CEACC5064B074A1B68516810B5064CB9
:102E9000B3FBF4F3584353685B1A9842FBD810BD58
:102EA00014000020001000E040420F0030B5451E25
:102EB00000F59530013900F2FF1015F8014F4B78FD
:102EC0009C422CBFE31A1B1BDBB2934238BF00238A
:102ED000854201F8013FF0D130BD431E00F5953029
:102EE000013900F2FF1013F8012F834201F8012F7E
:102EF000F9D1704700F59533421E002003F2FF130D
:102F000012F8011F002918BF01309A42F8D170470A
:102F1000431E00F5953000F2FF105A788A428CBFAC
:102F2000FF22002203F8012F8342F6D170470000F0
:102F30002DE9F84304464FF4963000F07FFF014638
:102F400007462046FFF7C9FF40F23F1804F52070FE
:102F50004FF4A0720023DFF85090A2F5A07CA0F5FA
:102F600020710446012507EB020E1EF805607E2E37
:102F70000AD8A1EB0C060B704B708B70B35416443F
:102F8000B37023706370A37001350131013445457E
:102F9000EBD102F5A07200F5A0704A45DDD13846AC
:102FA000BDE8F84300F052BFC02A0100F0B5F0239D
:102FB0004FF4A07453802546002314809380D3805F
:102FC00005FB03060024375D8F420FD11788A74207
:102FD0005788C8BF14809F429788C8BF5380A742B4
:102FE000D788B8BF94809F42B8BFD3800134B4F56E
:102FF000A07FE8D10133F02BE2D1F0BD07B502A9E3
:103000004FF6FF73012241F8040D0348FFF7A0FDBE
:10301000019803B05DF804FBB02C012008B5064B05
:103020001A6803689A4206D180210448FEF7BDF968
:103030000122034B1A7008BD1C5A022000040240F2
:103040009A0000203A4B02681B689A4270B56DD115
:1030500001224FF400713748FEF7A2F90122022144
:103060003548FEF79DF9354A35491378087801331C
:10307000DBB2B3FBF0F100FB1131137011F0FF0173
:1030800054D1B3EB400F2F4BA8BF117010780A2218
:103090001B78002841D14FF40076264DB3FBF2F1A6
:1030A00002FB1133DBB2284AD45C10B1002B08BFFD
:1030B000002404F0010201212448FEF771F9C4F351
:1030C000400201212248FEF76BF9C4F3800204217B
:1030D0002048FEF765F9C4F3C0024FF400611E48B2
:1030E000FEF75EF9C4F300124FF480511A48FEF760
:1030F00057F9C4F340124FF400511748FEF750F946
:10310000C4F3801204211148FEF74AF931462846DB
:103110000022BDE87040FEF743B9B3FBF2F3092B80
:103120004FF00206044D28BF0923BCE770BD00BF65
:103130006CDE0520001402400018024098000020B8
:10314000080000209B00002009000020000402402D
:103150000000024000100240000C024038B5054D4E
:10316000FDF782FA2B68C41AFDF77EFA2860204624
:1031700038BD00BF9C00002010B5B8B0342200213B
:10318000022407A800F06AFE1422002102A800F021
:1031900065FE0021902214A800F060FE224B07A8D3
:1031A0001A6C42F080521A641B6C03F08053009337
:1031B000009B1E4B1A6842F440421A601B680D9433
:1031C00003F44043119412940193019B032307934A
:1031D0004FF48033089301230A9310230B934FF489
:1031E00080030E9308230F93D8231093FEF7B8F9AA
:1031F000FEF77EF90F230394002402934FF4A053AB
:10320000072102A805934FF4805304940693FEF718
:1032100061FB4FF4824314A82D9414932023279329
:10322000FEF716FC38B010BD0038024000700040B8
:103230002DE9F04F9BB0BA4EFDF7FEF9002513AC17
:10324000FFF79AFF14230021204601271A46019315
:1032500000F004FE326B0421B24842F010024FF439
:10326000007B4FF011094FF0020832634FF4804A9F
:10327000326B02F010020492049A326B42F00402A4
:103280003263326B02F004020592059A326B42F00F
:1032900020023263326B02F020020692069A326BF1
:1032A00042F080023263326B02F080020792079A8A
:1032B000326B42F001023263326B02F0010208927B
:1032C000089A326B42F002023263326B02F0020261
:1032D0000992099A326B42F040023263326B02F07B
:1032E00040020A920A9A326B42F008023263326B51
:1032F00002F008020B920B9A0022FEF751F801220D
:103300004FF400718848FEF74BF8002201218748EE
:10331000FEF746F8002209218548FEF741F8002211
:1033200044F285018348FEF73BF8012202218248DE
:10333000FEF736F800224FF460518048FEF730F86F
:10334000002240217C48FEF72BF8042221467548D4
:103350001392159516951497FDF732FF4FF400520E
:10336000214672481392764A15951492FDF728FF6C
:1033700021466D48CDF84CB0CDF850901595169576
:10338000FDF71EFF2146694815951695139714976A
:10339000FDF716FF092221466548139215951695EB
:1033A0001497FDF70DFF852221466248139215956B
:1033B00016951497FDF704FF21465F48CDF84C8021
:1033C000CDF850904FF0800915951695FDF7F8FE51
:1033D000032221465748169200921595CDF84CA02D
:1033E0001497FDF7EDFE4FF4605154481595139175
:1033F000214616951497FDF7E3FE40214E4815959A
:103400001391214616951497FDF7DAFE21464A4896
:1034100014951595CDF84C90FDF7D2FE009A4FF417
:10342000E851434816920A22139121461792CDF88B
:1034300050801595FDF7C4FE21463D48CDF84CB0AF
:1034400014951595FDF7BCFE326B05213920DFF888
:10345000FCB042F480023263326B3A4E02F48002D6
:103460000392039A2A46FDF729F93920FDF75EF900
:1034700029461022204600F0F1FC4FF0804242F233
:10348000107358460F9510951195CBF80850CBF84E
:103490001050CBF818908BE80C00019BCBF80C3047
:1034A000FEF79AFF4FF4805321465846139300933A
:1034B000FFF78EF80FA958460F951195FFF750F9B1
:1034C000294610220FA800F0C9FC29461C222046DC
:1034D0000C950D950E9500F0C1FC1B4A3046B56069
:1034E000C6F80C803561C6F81890DFF8648086E86D
:1034F0008400FEF771FF009B0FA930460F93FFF782
:1035000067F83046FEF782FF0CA930460C950E9501
:10351000FFF726F9602321462A4630461AE000BF0D
:10352000003802400010024000140240000802402F
:10353000000002400004024000180240000C02405B
:1035400000001110DC590220000400406CDE052050
:10355000302D01201393159517951497FEF7A8FFAA
:10356000304600F03DFBBF48BF4A4FF4165385601C
:10357000C56005618561C5610562456280E80C0032
:103580000C234361FFF75BFBB848B94B056145610C
:103590008561056245628562C5620563C0F80C906D
:1035A00080E8280020238360FDF722F9B14B4046D4
:1035B000C8F80850C8F80030A3F1FE53C8F81050FE
:1035C000A3F69843C8F81450C8F81850C8F8043047
:1035D000C8F81C50C8F82050C8F80C70FDF7ECFE75
:1035E00029464046FDF739FF29464046FDF75BFF77
:1035F0003A464946A048FDF7D3FE3A4651469E4812
:10360000FDF7CEFE4FF49670FDF734F82A46494692
:103610009948FDF7C5FE2A4651469748FDF7C0FE7A
:10362000964800F043FDFFF713FCFDF71DF8944B9F
:1036300018605846FEF79EFD2946924D3046FFF72A
:1036400069F800F065F9002800F0A38000F076F931
:10365000FFF784FD01468C4800F0B4FC4FF416439C
:103660008A4A00218148FDF709F9042000F0E6FBB1
:10367000002380461A46E2540133142BFBD1002567
:103680000126DFF820922F46DFF828A299F80030B3
:10369000002B6AD07548FDF74FF9DFF8F0B1002232
:1036A0007B484FF0030E3BF81210C1F3441C01F0AD
:1036B0001F03C1F3842163440B4493FBFEF31354B3
:1036C0000132B2F5963FEED11EB172497048FFF754
:1036D00004FC0A226F496E48FFF7E8FB6D48FFF7CC
:1036E00009FCB0F5407F37DD6B4800F0DFFC0A21B4
:1036F0006848FFF70DFC6748FFF71AFC6548FFF7BD
:1037000017FC6448FFF714FC6248FFF711FC61489E
:10371000FFF70EFC4246FF215E48FFF747FCB8F872
:103720000030BF2B00F3C880B8F804B0BBF1C00F65
:1037300037DD5A480126009300F0B8FC009B7F2B30
:1037400031DCBBF1800F2EDD46F00206544800F05C
:10375000ADFCB74240F081804E4900264C48FFF74F
:10376000BCFB504B8AF800601E709AF800B0BBF1A9
:10377000000F8BD13D48FDF78DF9052886D15A46BB
:103780004FF480413C48FDF70BFE3848FDF70AF93D
:103790007CE7284600F08AFC4FF49670FCF76AFF3D
:1037A0004FE70026CBE7BE42D6D01AAB2B4403F836
:1037B0001C6C002E4DD1002D4AD09DF84C10224695
:1037C0000DF15F060023881E01F0FD07C0B212F85C
:1037D000015B022D1DD1157815B9012F08BF0123FA
:1037E0009642F4D1012B2AD12F4800F05FFC2F4ADA
:1037F00013780133DBB2632B137001D96323137089
:1038000000231A46E2540133142BFBD100252F4626
:10381000A2E7012D06D11578002DE1D1012898BF2E
:103820000223DDE7032DDBD11578002DD8D1012946
:1038300003D0022908BF0223D2E70B46D0E7022BB0
:10384000DED11B4800F032FC184A1378013BD6E762
:103850002E4601353746EDB27EE71AAB2B4403F80E
:103860001C6CF6E7B02C0120004800401C5A0220D6
:10387000000005500054004000040240554D00086F
:103880009C000020674D0008834D00086C860320D3
:10389000DC2D0120B0000020964D0008A74D000847
:1038A000B14D00089A000020BB4D00089B0000208D
:1038B000C64D000899000020002F3FF44DAF1AAB11
:1038C00000222B4403F81C2C75E700BF704738B565
:1038D00005460C46FFF720FA4220FFF76DFA18B9AB
:1038E000FFF746FA002038BD3220FFF7CBFA284612
:1038F000FFF762FA0028F3D03220FFF7C3FA204620
:10390000FFF75AFA0028EBD0FFF732FA012038BD52
:1039100008B5002208210748FDF742FD01220648AC
:103920001146FDF73DFD3220FCF7A4FEFFF7B6F986
:10393000012008BD000002400008024038B5002404
:103940000A4D05EB440315F814005978FFF7BFFF43
:1039500020B90748BDE8384000F0A8BB14B93220B0
:10396000FCF788FE01347F2CEBD138BDEB4D00080D
:10397000D14D00080A4B82B01A6C42F080521A6492
:103980001A6C02F080520092009A5A6C42F4804203
:103990005A645B6C03F480430193019B02B070474F
:1039A00000380240F0B58DB007461422002107A868
:1039B00000F054FA3A684F4B9A4240F099804E4BCF
:1039C0000D24022607A95A6B00254C4842F001023B
:1039D0005A635A6B02F001020192019A1A6B42F08B
:1039E00010021A631A6B02F010020292029A1A6B0A
:1039F00042F001021A631A6B02F001020392039A69
:103A00001A6B42F004021A631A6B02F00402049269
:103A1000049A1A6B42F008021A631A6B02F0080249
:103A20000592059A1A6B42F040021A631B6B0896C6
:103A300003F040030693069B702307930B94FDF756
:103A4000BFFB502307A92E4807930B9408960995AE
:103A50000A95FDF7B5FB4FF4707307A92948079342
:103A60000B94089609950A95FDF7AAFB082307A968
:103A7000254807930B94089609950A95FDF7A0FB36
:103A80004FF40073214807A90B940793204C089624
:103A900009950A95FDF794FB4FF000731D4A2046E7
:103AA000A560E560E562256384E80C004FF480635F
:103AB00023614FF4805363614FF48043A3614FF45B
:103AC0008073E3614FF48033236204236362032332
:103AD000A362FCF7F9FF08B1FFF7F8FE4E20BC64C3
:103AE00000220521A763FCF7E9FD4E20FCF71EFE2E
:103AF0000DB0F0BD0000055000380240001002403B
:103B00000000024000080240000C02400018024081
:103B10007C2D01202864024010B588B00446142290
:103B2000002103A800F09AF92268134B9A4221D190
:103B3000124C03A91248236B43F002032363236B47
:103B400003F002030193019B4FF4107303931223BC
:103B50000493012305930223069304230793FDF79F
:103B60002FFB236C43F400132364236C03F4001332
:103B70000293029B08B010BD005400400038024080
:103B8000000402400368B3F1804F07B515D103F577
:103B90000E331C200F211A6C42F001021A6400221D
:103BA0001B6C03F001030093009BFCF787FD1C20B6
:103BB000FCF7BCFD03B05DF804FB074A9342F9D162
:103BC000064B1A6C42F002021A641B6C03F00203EB
:103BD0000193019BEEE700BF000400400038024063
:103BE00010B586B004461422002101A800F036F971
:103BF00022680C4B9A4213D103F50D3301A90A48F0
:103C00001A6B42F002021A631B6B03F0020300936B
:103C1000009B10230193022302930593FDF7D0FA32
:103C200006B010BD000400400004024010B588B08A
:103C300004461422002103A800F010F92268144B56
:103C40009A4222D103F5F83303A912481A6C42F4C0
:103C500080221A641A6C02F480220192019A1A6B73
:103C600042F008021A631B6B03F008030293029BE5
:103C70004FF440730393022304930123059303231A
:103C8000069307230793FDF79BFA08B010BD00BF0A
:103C900000480040000C02407047FEE7FEE7FEE7E8
:103CA000FEE7704770477047FCF7D2BC0148FEF74B
:103CB0007CBA00BF6CDE05200148FCF7D3BF00BF13
:103CC0007C2D01200148FCF79BBE00BF1C5A02203E
:103CD00070B50E4615460C46A31B9D4201DC2846D6
:103CE00070BDAFF3008004F8010BF5E770B50E4628
:103CF00015460C46A31B9D4201DC284670BD14F8F6
:103D0000010BFFF77BF9F5E7094B0246196809B982
:103D1000084919601868694602448A4283BF0C2228
:103D2000054B4FF0FF301A6088BF1A60704700BF24
:103D3000A0000020D0DE0520CCDE05204FF0FF30B3
:103D400070474FF4005300204B60704701207047CC
:103D5000002070470F490020D1F8883043F47003E9
:103D6000C1F888300C4B1A6842F001021A60986062
:103D70001A6822F0847222F480321A60074A5A606C
:103D80001A6822F480221A60D8604FF000638B60BA
:103D9000704700BF00ED00E0003802401030002402
:103DA000DFF834D0002103E00C4B5B584350043162
:103DB0000B480C4B42189A42F6D30B4A02E0002300
:103DC00042F8043B094B9A42F9D3FFF7C3FF00F0D6
:103DD00011F8FFF72DFA704700000820AC4F0008DB
:103DE000000000207C0000207C000020D0DE0520A8
:103DF000FEE7000070B50D4E0D4CA41BA41000256D
:103E0000A54209D10B4E0C4C00F08CFFA41BA41052
:103E10000025A54205D170BD56F8253098470135DB
:103E2000EEE756F8253098470135F2E7A44F000831
:103E3000A44F0008A44F0008A84F0008024B0146F9
:103E4000186800F061B800BF18000020024B01465E
:103E5000186800F00BB800BF1800002002440346A9
:103E6000934200D1704703F8011BF9E738B50546C6
:103E7000002945D051F8043C0C1F002BB8BFE418B2
:103E800000F0CCFB1F4A1368104633B9636014601E
:103E90002846BDE8384000F0C2BBA3420CD92168D7
:103EA0006218934204BF1A685B68636004BF5218CB
:103EB00022600460ECE713465A680AB1A242FAD9BC
:103EC00019685818A0420BD1206801445818824242
:103ED0001960DDD1106852685A6001441960D7E753
:103EE00002D90C232B60D3E7206821188A4204BF33
:103EF00011685268626004BF091821605C60C7E7FE
:103F000038BD00BFA400002070B5CD1C25F003050E
:103F100008350C2D38BF0C25002D064601DBA942C3
:103F200003D90C233360002070BD00F077FB234AD7
:103F30001468214691B9224C23681BB9304600F021
:103F4000BDF820602946304600F0B8F8431C26D161
:103F50000C233360304600F062FBE4E70B685B1B28
:103F60001AD40B2B0FD90B60CD50CC18304600F073
:103F700056FB04F10B00231D20F00700C31A1BD0D1
:103F80005A42E25070BD8C420DBF63684B6863605B
:103F9000136018BF0C46E9E70C464968CAE7C41C21
:103FA00024F00304A04205D0211A304600F086F820
:103FB0000130CDD02560D9E770BD00BFA40000203E
:103FC000A80000200FB40A4B13B51C6824B1A369E4
:103FD00013B9204600F034FA05AB049AA1680193A6
:103FE000204600F047FB02B0BDE8104004B0704727
:103FF0001800002070B50E46054618B183690BB94C
:1040000000F01EFAAB69AC6813B9284600F018FA44
:10401000234B9C4217D16C68A3891B071DD52369CC
:10402000DBB1013EA36816F8011F013BA360E9B9AB
:10403000002B2EDA22460A21284600F04FF80130E4
:1040400011D00A2070BD174B9C4201D1AC68E3E748
:10405000154B9C4208BFEC68DEE72146284600F07D
:104060008FF80028DDD04FF0FF3070BD002B04DA50
:10407000A269934206DB0A2904D023685A1C2260F5
:104080001970CFE72246284600F028F80130C9D140
:10409000E9E723680A205A1C2260187070BD00BF2F
:1040A000244F0008444F0008044F0008024B01460B
:1040B0001868FFF79FBF00BF1800002038B5064CF6
:1040C0000023054608462360FFF71EFE431C02D16D
:1040D000236803B12B6038BDCCDE0520F8B50E4651
:1040E0001446054618B183690BB900F0A9F9214BB4
:1040F0009C422AD16C68A369A360A3891A072ED5B4
:10410000236963B323692068C01A6369F6B29842D1
:10411000374604DB2146284600F028F928BBA3686F
:10412000013BA36023685A1C22601E706369013042
:10413000984204D0A389DB0719D50A2E17D121464E
:10414000284600F013F990B10FE00B4B9C4201D1CF
:10415000AC68D0E7094B9C4208BFEC68CBE721462E
:10416000284600F00DF80028CCD04FF0FF37384635
:10417000F8BD00BF244F0008444F0008044F00085A
:10418000324B70B51D6806460C4625B1AB6913B9B4
:10419000284600F055F92E4B9C420FD16C68B4F9BB
:1041A0000C309AB215072CD4D00611D409223260F3
:1041B00043F04003A3814FF0FF3070BD254B9C427C
:1041C00001D1AC68EBE7244B9C4208BFEC68E6E702
:1041D000510712D5616B41B104F14403994202D0F9
:1041E0003046FFF743FE00236363A38923F02403D3
:1041F000A3810023636023692360A38943F008033C
:10420000A38123694BB9A38903F42073B3F5007F1D
:1042100003D02146304600F0C1F9A28912F0010313
:104220000CD00023A36063695B42A361236953B987
:10423000B4F90C3013F08000BAD170BD920758BFAA
:104240006369A360F2E70020F7E700BF18000020D1
:10425000244F0008444F0008044F00088A892DE9C4
:10426000F041054610070C465AD44B68002B05DC7C
:104270000B6C002B02DC0020BDE8F081E66A002E0A
:10428000F9D0002312F480522F682B6033D0606D78
:10429000A3895A0705D56368C01A636B0BB1236CF9
:1042A000C01A00230246E66A216A2846B047431C2A
:1042B000A38906D129681D294BD82B4ACA40D607A5
:1042C00047D500226260D9042269226004D5421CCD
:1042D00001D12B6803B96065616B2F600029CAD0DA
:1042E00004F14403994202D02846FFF7BFFD0020A5
:1042F0006063BDE8F081216A01232846B047411C74
:10430000C6D12B68002BC3D01D2B01D0162B01D199
:104310002F60B0E7A38943F04003A381BDE8F0819B
:104320000F69002FA7D093070E6808BF4B690F6075
:1043300018BF0023A6EB07088B60B8F1000F9ADDC9
:1043400043463A46216AA66A2846B047002807DC59
:10435000A38943F04003A3814FF0FF30BDE8F08113
:104360000744A8EB0008E8E70100402038B50B69D6
:1043700005460C46DBB118B183690BB900F060F853
:104380000C4B9C4209D16C68B4F90C307BB12146CE
:104390002846BDE83840FFF761BF074B9C4201D17A
:1043A000AC68F1E7054B9C4208BFEC68ECE70020E5
:1043B00038BD00BF244F0008444F0008044F0008D8
:1043C000014900F0A9B800BF6D430008002310B5F3
:1043D000044603604360836081814366C281036158
:1043E00043618361194608225C30FFF737FD054BB6
:1043F0006362054BA362054BE362054B24622363B2
:1044000010BD00BFCD4B0008EF4B0008274C000843
:104410004B4C000870B54A1E682555430E4605F101
:104420007401FFF771FD044640B1002180E84200AD
:104430000C30A06005F16802FFF710FD204670BD4A
:10444000836910B5044633BB8364C3640365124BB0
:10445000124A1B688262984204BF0123836100F004
:104460001FF86060204600F01BF8A060204600F0B6
:1044700017F80022E06004216068FFF7A7FF01221F
:104480000921A068FFF7A2FF02221221E068FFF7CE
:104490009DFF0123A36110BD644F0008C1430008C4
:1044A000F8B51C4B1E68B369074613B93046FFF7D1
:1044B000C7FF4836B4687368013B03D5336833B12E
:1044C0003668F7E7B4F90C506DB16834F4E70421AD
:1044D0003846FFF79FFF30600028F1D10C233B6086
:1044E00004462046F8BD4FF6FF73E3810123A38104
:1044F00065662560A560656025616561A561082226
:10450000294604F15C00FFF7A9FC6563A563A56477
:10451000E564E6E7644F00082DE9F84380468946E4
:1045200000F14804002614B93046BDE8F883A568B8
:104530006768013F01D52468F5E7AB89012B07D9EE
:10454000B5F90E30013303D029464046C84706432B
:104550006835EEE770B50E46B1F90E10002990B03F
:1045600014461D4607DA00232B60B3891A0610D4BF
:104570004FF480630EE001AA00F08EFB0028F2DB0E
:10458000029A02F47042A2F500535A425A412A603C
:10459000EEE740230020236010B070BD8B8973B517
:1045A0009D0706460C4607D504F1470323602361A7
:1045B0000123636102B070BD01AB6A46FFF7CAFF19
:1045C000009905463046FFF79FFC48B9B4F90C3016
:1045D0009A05EFD423F0030343F00203A381E3E73A
:1045E0000D4BB362A389206043F08003A381009B3D
:1045F0006361019B20615BB1B4F90E10304600F09D
:104600005DFB28B1A38923F0030343F00103A381D9
:10461000A3891D43A581CDE7C143000870477047BA
:104620009368013B002B10B4936009DA9469A342AC
:1046300002DBCBB20A2B03D15DF8044BFFF74EBD72
:104640001368581C10601970C8B25DF8044B7047AD
:10465000F8B506460F461446D518AC4201D10020E5
:1046600007E03A4614F8011B3046FFF7D9FF431C18
:10467000F3D1F8BD2DE9F04F9DB00C4617460393DA
:10468000064618B183690BB9FFF7DAFE7C4B9C42F2
:1046900057D17468A38918075DD52369002B5AD0B8
:1046A0000023099320238DF8293030238DF82A30F8
:1046B0004FF0010BB846454615F8013B002B55D18C
:1046C000B8EB070A0BD053463A4621463046FFF76F
:1046D000BFFF013000F0C480099B5344099398F850
:1046E0000030002B00F0BC8000234FF0FF32049319
:1046F0000793059206938DF853301A930522297873
:104700006048FBF79DFD05F10108049B002831D1AD
:10471000D90644BF20228DF853201A0744BF2B220C
:104720008DF853202A782A2A2CD0079A00210A20B3
:10473000A846013598F80030303B092B6DD971B38C
:1047400026E0514B9C4201D1B468A3E74F4B9C42F9
:1047500008BFF4689EE721463046FFF711FD0028A8
:104760009ED04FF0FF301DB0BDE8F08F252BA7D0B5
:10477000A846A0E7434A801A0BFA00F018430490B9
:104780004546BBE7039A111D12680391002A01DB1D
:10479000079204E0524243F002030792049398F810
:1047A00000302E2B10D198F801302A2B08F101018E
:1047B00037D1039B1A1D1B680392002BB8BF4FF023
:1047C000FF3308F102080593314D98F800100322D9
:1047D0002846FBF735FD40B14023401B03FA00F0AB
:1047E000049B0343049308F1010898F8001029483A
:1047F0008DF82810062208F10107FBF721FD00289B
:1048000034D0254B03BB039B073323F00703083346
:104810000393099B4B4409934CE700FB02320121AF
:1048200086E70023059318460A258846013198F843
:104830000020303A092A03D9002BC5D00590C3E7E0
:1048400005FB00200123F0E703AB00932246134B46
:1048500004A93046AFF30080B0F1FF3F8146D8D1C4
:10486000A3895B063FF57DAF09987CE703AB009316
:1048700022460A4B04A9304600F088F8ECE700BF56
:10488000244F0008684F0008444F0008044F0008F8
:104890006E4F0008724F00080000000051460008EB
:1048A0002DE9F04791461F468A680B69DDF82080A4
:1048B0009342B8BF1346C9F8003091F8432006462A
:1048C0000C4612B10133C9F800302368990642BF83
:1048D000D9F800300233C9F80030256815F0060514
:1048E00007D104F1190AE368D9F800209B1A9D4208
:1048F00029DB94F843302268003318BF0123920665
:104900002ED404F1430239463046C047013021D04D
:104910002368E568D9F8002003F00603042B08BFDC
:10492000AD1AA36822690CBF25EAE57500259342FC
:10493000C4BF9B1AED184FF000091A344D451BD126
:104940000020BDE8F0870123524639463046C04773
:10495000013003D14FF0FF30BDE8F0870135C2E7E9
:10496000E1185A1C302081F84300224494F8451085
:1049700082F843100233C4E7012322463946304609
:10498000C0470130E6D009F10109D7E72DE9F0432E
:1049900017460A7E85B06E2A984606460C460C9B42
:1049A00001F1430E00F0BC801AD8632A2ED00AD839
:1049B000002A00F0C880582A00F08A8004F14205DD
:1049C00084F842202AE0642A01D0692AF6D12168BD
:1049D0001A6811F0800F23D0111D1960136827E0A9
:1049E000732A00F0B48008D86F2A2AD0702AE5D143
:1049F0000A6842F020020A6003E0752A21D0782A72
:104A0000DCD1782284F845206E4964E01A6801F10F
:104A10004205111D1960136884F842300123A3E098
:104A200011F0400F02F104011960D7D0B2F9003043
:104A3000002B03DA2D225B4284F8432062490A22CC
:104A400017E02068196810F0800F03D0081D186067
:104A50000B6806E010F0400F01F104001860F7D079
:104A60000B8859496F2A14BF0A220822002084F8B3
:104A700043006568A560002DC0F29C80206820F08E
:104A800004002060002B3FD1002D40F0958075463A
:104A9000082A0BD12368DA0708D5236962689A428D
:104AA000DEBF302305F8013C05F1FF35AEEB050311
:104AB0002361CDF800803B4603AA21463046FFF72C
:104AC000EFFE013055D14FF0FF3005B0BDE8F08367
:104AD00081F845203C492268186812F0800F00F1E7
:104AE00004051D6001D0036802E05506FBD503886C
:104AF000D00744BF42F0200222601BB9226822F096
:104B0000200222601022B1E77546B3FBF2F002FBEF
:104B10001033CB5C05F8013D03460028F5D1B7E71B
:104B200008681A68496910F0800F04D0101D1860D9
:104B30001368196007E010F0400F02F104001860DC
:104B40001368F6D01980002323617546B1E71A680F
:104B5000111D19601568626800212846FBF770FB7B
:104B600008B1401B606063682361002384F8433010
:104B70009FE723692A4639463046C0470130A2D014
:104B800023689B0707D5002504F11909E368039AF8
:104B90009B1A9D4205DBE068039B9842B8BF18460C
:104BA00093E701234A4639463046C04701308AD050
:104BB0000135EBE7002BA7D10B7884F8423004F1E4
:104BC000420565E78A4F0008794F000810B50C468A
:104BD000B1F90E1000F094F80028ABBF636DA38903
:104BE0001B1823F48053ACBF6365A38110BD2DE96E
:104BF000F0411F468B89DB0505460C46164605D558
:104C000002230022B1F90E1000F068F8A389B4F96C
:104C10000E1023F48053A38132463B462846BDE85C
:104C2000F04100F017B810B50C46B1F90E1000F0C5
:104C300055F8431CA38915BF606523F4805343F4E2
:104C40008053A38118BFA38110BDB1F90E1000F0ED
:104C500013B8000038B5074C054608461146002237
:104C600022601A46FFF742F8431C02D1236803B1C1
:104C70002B6038BDCCDE052038B5064C0023054638
:104C800008462360FFF75AF8431C02D1236803B19A
:104C90002B6038BDCCDE052038B5074C0023054617
:104CA000084611462360FFF74CF8431C02D12368E5
:104CB00003B12B6038BD00BFCCDE052038B5064CF3
:104CC0000023054608462360FFF740F8431C02D145
:104CD000236803B12B6038BDCCDE052038B5074C06
:104CE000054608461146002222601A46FFF730F8B2
:104CF000431C02D1236803B12B6038BDCCDE0520F4
:104D000038B5074C054608461146002222601A466F
:104D1000FEF7DEFF431C02D1236803B12B6038BDD0
:104D2000CCDE0520F8B500BFF8BC08BC9E46704735
:0C4D3000F8B500BFF8BC08BC9E467047F8
:104D3C0000061016000610160104020800101010D0
:104D4C000410101002101010080A0A0A0A0A454D25
:104D5C0050455A414E444F210D0A0043414D3A20D3
:104D6C004572726F7220616C20496E696369616C67
:104D7C00697A61722E0D0043414D3A20496E697477
:104D8C00202825756D73290D0A00436F6E206D6FF9
:104D9C0076696D69656E746F210D004C494E454105
:104DAC002055500D004C494E45412044570D0045AF
:104DBC004E5452414E444F210D0053414C49454EE7
:104DCC00444F210D004661696C656420746F207539
:104DDC007064617465207265676973746572001222
:104DEC008012140C08114040F08C00B0841000119B
:104DFC0040328017171805030A19021A7A703A7193
:104E0C0035721173F0A2024F805080510052225320
:104E1C005E5480589E7A207B107C1E7D357E5A7F96
:104E2C0069807681808288838F849685A386AF87FC
:104E3C00C488D789E8A505AB072495253326E39FBD
:104E4C0078A068A103A6D8A7D8A8F0A990AA9443E3
:104E5C000A44F0453446584728483A59885A885BE2
:104E6C00445C675D495E0E6C0A6D556E116F9F6AEE
:104E7C00400140026013E734113F00750576E14CA8
:104E8C00007701B80A41183B12A488960097309815
:104E9C002099309A849B299C039D4C9E3F78040E4C
:104EAC00610F4B16021E00210222912907330B358C
:104EBC000B371D3871392A3C784D404E2069006BF8
:104ECC003A74108D4F8E008F009000910096009ACE
:104EDC0000B10CB20EB3824B0100000000000000C8
:104EEC00000000000001020304060708090000008E
:104EFC00000102030400000000000000000000009C
:104F0C000000000000000000000000000000000095
:104F1C000000000000000000000000000000000085
:104F2C000000000000000000000000000000000075
:104F3C000000000000000000000000000000000065
:104F4C000000000000000000000000000000000055
:104F5C0000000000000000001C000020232D302B5E
:104F6C002000686C4C00656667454647003031325E
:104F7C0033343536373839414243444546003031B5
:104F8C003233343536373839616263646566000014
:084F9C0074B3FF7F0100000067
:044FA40025020008DA
:044FA80001020008FA
:104FAC000100000010000000023F065B4F666D7DA3
:104FBC00077F67000024F4001C00002000000000A4
:104FCC00244F0008444F0008044F00080000000064
:104FDC0000000000000000000000000000000000C5
:104FEC0000000000000000000000000000000000B5
:104FFC0000000000000000000000000000000000A5
:10500C000000000000000000000000000000000094
:0C501C0000000000000000000000000088
:0400000508003DA111
:00000001FF
